{"abi":[{"inputs":[{"internalType":"uint256","name":"_minimum","type":"uint256"}],"name":"deployCampaign","outputs":[],"stateMutability":"nonpayable","type":"function"},{"inputs":[],"name":"getDeployedCampaign","outputs":[{"internalType":"address[]","name":"deployed","type":"address[]"}],"stateMutability":"view","type":"function"}],"devdoc":{"kind":"dev","methods":{},"version":1},"evm":{"assembly":"    /* \"Campaign.sol\":63:429  contract CampaignDeployer {... */\n  mstore(0x40, 0x80)\n  callvalue\n  dup1\n  iszero\n  tag_1\n  jumpi\n  0x00\n  dup1\n  revert\ntag_1:\n  pop\n  dataSize(sub_0)\n  dup1\n  dataOffset(sub_0)\n  0x00\n  codecopy\n  0x00\n  return\nstop\n\nsub_0: assembly {\n        /* \"Campaign.sol\":63:429  contract CampaignDeployer {... */\n      mstore(0x40, 0x80)\n      callvalue\n      dup1\n      iszero\n      tag_1\n      jumpi\n      0x00\n      dup1\n      revert\n    tag_1:\n      pop\n      jumpi(tag_2, lt(calldatasize, 0x04))\n      shr(0xe0, calldataload(0x00))\n      dup1\n      0x37ec992a\n      eq\n      tag_3\n      jumpi\n      dup1\n      0x5eac0007\n      eq\n      tag_4\n      jumpi\n    tag_2:\n      0x00\n      dup1\n      revert\n        /* \"Campaign.sol\":129:302  function deployCampaign(uint _minimum) public {... */\n    tag_3:\n      tag_5\n      0x04\n      dup1\n      calldatasize\n      sub\n      dup2\n      add\n      swap1\n      tag_6\n      swap2\n      swap1\n      tag_7\n      jump\t// in\n    tag_6:\n      tag_8\n      jump\t// in\n    tag_5:\n      stop\n        /* \"Campaign.sol\":308:427  function getDeployedCampaign() public view returns(address[] memory deployed) {... */\n    tag_4:\n      tag_9\n      tag_10\n      jump\t// in\n    tag_9:\n      mload(0x40)\n      tag_11\n      swap2\n      swap1\n      tag_12\n      jump\t// in\n    tag_11:\n      mload(0x40)\n      dup1\n      swap2\n      sub\n      swap1\n      return\n        /* \"Campaign.sol\":129:302  function deployCampaign(uint _minimum) public {... */\n    tag_8:\n        /* \"Campaign.sol\":185:204  address newCampaign */\n      0x00\n        /* \"Campaign.sol\":228:236  _minimum */\n      dup2\n        /* \"Campaign.sol\":238:248  msg.sender */\n      caller\n        /* \"Campaign.sol\":215:249  new Campaign(_minimum, msg.sender) */\n      mload(0x40)\n      tag_14\n      swap1\n      tag_15\n      jump\t// in\n    tag_14:\n      tag_16\n      swap3\n      swap2\n      swap1\n      tag_17\n      jump\t// in\n    tag_16:\n      mload(0x40)\n      dup1\n      swap2\n      sub\n      swap1\n      0x00\n      create\n      dup1\n      iszero\n      dup1\n      iszero\n      tag_18\n      jumpi\n      returndatasize\n      0x00\n      dup1\n      returndatacopy\n      revert(0x00, returndatasize)\n    tag_18:\n      pop\n        /* \"Campaign.sol\":185:250  address newCampaign = address(new Campaign(_minimum, msg.sender)) */\n      swap1\n      pop\n        /* \"Campaign.sol\":260:277  deployedCampaigns */\n      0x00\n        /* \"Campaign.sol\":283:294  newCampaign */\n      dup2\n        /* \"Campaign.sol\":260:295  deployedCampaigns.push(newCampaign) */\n      swap1\n      dup1\n      0x01\n      dup2\n      sload\n      add\n      dup1\n      dup3\n      sstore\n      dup1\n      swap2\n      pop\n      pop\n      0x01\n      swap1\n      sub\n      swap1\n      0x00\n      mstore\n      keccak256(0x00, 0x20)\n      add\n      0x00\n      swap1\n      swap2\n      swap1\n      swap2\n      swap1\n      swap2\n      0x0100\n      exp\n      dup2\n      sload\n      dup2\n      0xffffffffffffffffffffffffffffffffffffffff\n      mul\n      not\n      and\n      swap1\n      dup4\n      0xffffffffffffffffffffffffffffffffffffffff\n      and\n      mul\n      or\n      swap1\n      sstore\n      pop\n        /* \"Campaign.sol\":175:302  {... */\n      pop\n        /* \"Campaign.sol\":129:302  function deployCampaign(uint _minimum) public {... */\n      pop\n      jump\t// out\n        /* \"Campaign.sol\":308:427  function getDeployedCampaign() public view returns(address[] memory deployed) {... */\n    tag_10:\n        /* \"Campaign.sol\":359:384  address[] memory deployed */\n      0x60\n        /* \"Campaign.sol\":403:420  deployedCampaigns */\n      0x00\n        /* \"Campaign.sol\":396:420  return deployedCampaigns */\n      dup1\n      sload\n      dup1\n      0x20\n      mul\n      0x20\n      add\n      mload(0x40)\n      swap1\n      dup2\n      add\n      0x40\n      mstore\n      dup1\n      swap3\n      swap2\n      swap1\n      dup2\n      dup2\n      mstore\n      0x20\n      add\n      dup3\n      dup1\n      sload\n      dup1\n      iszero\n      tag_21\n      jumpi\n      0x20\n      mul\n      dup3\n      add\n      swap2\n      swap1\n      0x00\n      mstore\n      keccak256(0x00, 0x20)\n      swap1\n    tag_22:\n      dup2\n      0x00\n      swap1\n      sload\n      swap1\n      0x0100\n      exp\n      swap1\n      div\n      0xffffffffffffffffffffffffffffffffffffffff\n      and\n      0xffffffffffffffffffffffffffffffffffffffff\n      and\n      dup2\n      mstore\n      0x20\n      add\n      swap1\n      0x01\n      add\n      swap1\n      dup1\n      dup4\n      gt\n      tag_22\n      jumpi\n    tag_21:\n      pop\n      pop\n      pop\n      pop\n      pop\n      swap1\n      pop\n        /* \"Campaign.sol\":308:427  function getDeployedCampaign() public view returns(address[] memory deployed) {... */\n      swap1\n      jump\t// out\n    tag_15:\n      dataSize(sub_0)\n      dup1\n      dataOffset(sub_0)\n      dup4\n      codecopy\n      add\n      swap1\n      jump\t// out\n        /* \"#utility.yul\":88:205   */\n    tag_24:\n        /* \"#utility.yul\":197:198   */\n      0x00\n        /* \"#utility.yul\":194:195   */\n      dup1\n        /* \"#utility.yul\":187:199   */\n      revert\n        /* \"#utility.yul\":334:411   */\n    tag_26:\n        /* \"#utility.yul\":371:378   */\n      0x00\n        /* \"#utility.yul\":400:405   */\n      dup2\n        /* \"#utility.yul\":389:405   */\n      swap1\n      pop\n        /* \"#utility.yul\":334:411   */\n      swap2\n      swap1\n      pop\n      jump\t// out\n        /* \"#utility.yul\":417:539   */\n    tag_27:\n        /* \"#utility.yul\":490:514   */\n      tag_46\n        /* \"#utility.yul\":508:513   */\n      dup2\n        /* \"#utility.yul\":490:514   */\n      tag_26\n      jump\t// in\n    tag_46:\n        /* \"#utility.yul\":483:488   */\n      dup2\n        /* \"#utility.yul\":480:515   */\n      eq\n        /* \"#utility.yul\":470:533   */\n      tag_47\n      jumpi\n        /* \"#utility.yul\":529:530   */\n      0x00\n        /* \"#utility.yul\":526:527   */\n      dup1\n        /* \"#utility.yul\":519:531   */\n      revert\n        /* \"#utility.yul\":470:533   */\n    tag_47:\n        /* \"#utility.yul\":417:539   */\n      pop\n      jump\t// out\n        /* \"#utility.yul\":545:684   */\n    tag_28:\n        /* \"#utility.yul\":591:596   */\n      0x00\n        /* \"#utility.yul\":629:635   */\n      dup2\n        /* \"#utility.yul\":616:636   */\n      calldataload\n        /* \"#utility.yul\":607:636   */\n      swap1\n      pop\n        /* \"#utility.yul\":645:678   */\n      tag_49\n        /* \"#utility.yul\":672:677   */\n      dup2\n        /* \"#utility.yul\":645:678   */\n      tag_27\n      jump\t// in\n    tag_49:\n        /* \"#utility.yul\":545:684   */\n      swap3\n      swap2\n      pop\n      pop\n      jump\t// out\n        /* \"#utility.yul\":690:1019   */\n    tag_7:\n        /* \"#utility.yul\":749:755   */\n      0x00\n        /* \"#utility.yul\":798:800   */\n      0x20\n        /* \"#utility.yul\":786:795   */\n      dup3\n        /* \"#utility.yul\":777:784   */\n      dup5\n        /* \"#utility.yul\":773:796   */\n      sub\n        /* \"#utility.yul\":769:801   */\n      slt\n        /* \"#utility.yul\":766:885   */\n      iszero\n      tag_51\n      jumpi\n        /* \"#utility.yul\":804:883   */\n      tag_52\n      tag_24\n      jump\t// in\n    tag_52:\n        /* \"#utility.yul\":766:885   */\n    tag_51:\n        /* \"#utility.yul\":924:925   */\n      0x00\n        /* \"#utility.yul\":949:1002   */\n      tag_53\n        /* \"#utility.yul\":994:1001   */\n      dup5\n        /* \"#utility.yul\":985:991   */\n      dup3\n        /* \"#utility.yul\":974:983   */\n      dup6\n        /* \"#utility.yul\":970:992   */\n      add\n        /* \"#utility.yul\":949:1002   */\n      tag_28\n      jump\t// in\n    tag_53:\n        /* \"#utility.yul\":939:1002   */\n      swap2\n      pop\n        /* \"#utility.yul\":895:1012   */\n      pop\n        /* \"#utility.yul\":690:1019   */\n      swap3\n      swap2\n      pop\n      pop\n      jump\t// out\n        /* \"#utility.yul\":1025:1139   */\n    tag_29:\n        /* \"#utility.yul\":1092:1098   */\n      0x00\n        /* \"#utility.yul\":1126:1131   */\n      dup2\n        /* \"#utility.yul\":1120:1132   */\n      mload\n        /* \"#utility.yul\":1110:1132   */\n      swap1\n      pop\n        /* \"#utility.yul\":1025:1139   */\n      swap2\n      swap1\n      pop\n      jump\t// out\n        /* \"#utility.yul\":1145:1329   */\n    tag_30:\n        /* \"#utility.yul\":1244:1255   */\n      0x00\n        /* \"#utility.yul\":1278:1284   */\n      dup3\n        /* \"#utility.yul\":1273:1276   */\n      dup3\n        /* \"#utility.yul\":1266:1285   */\n      mstore\n        /* \"#utility.yul\":1318:1322   */\n      0x20\n        /* \"#utility.yul\":1313:1316   */\n      dup3\n        /* \"#utility.yul\":1309:1323   */\n      add\n        /* \"#utility.yul\":1294:1323   */\n      swap1\n      pop\n        /* \"#utility.yul\":1145:1329   */\n      swap3\n      swap2\n      pop\n      pop\n      jump\t// out\n        /* \"#utility.yul\":1335:1467   */\n    tag_31:\n        /* \"#utility.yul\":1402:1406   */\n      0x00\n        /* \"#utility.yul\":1425:1428   */\n      dup2\n        /* \"#utility.yul\":1417:1428   */\n      swap1\n      pop\n        /* \"#utility.yul\":1455:1459   */\n      0x20\n        /* \"#utility.yul\":1450:1453   */\n      dup3\n        /* \"#utility.yul\":1446:1460   */\n      add\n        /* \"#utility.yul\":1438:1460   */\n      swap1\n      pop\n        /* \"#utility.yul\":1335:1467   */\n      swap2\n      swap1\n      pop\n      jump\t// out\n        /* \"#utility.yul\":1473:1599   */\n    tag_32:\n        /* \"#utility.yul\":1510:1517   */\n      0x00\n        /* \"#utility.yul\":1550:1592   */\n      0xffffffffffffffffffffffffffffffffffffffff\n        /* \"#utility.yul\":1543:1548   */\n      dup3\n        /* \"#utility.yul\":1539:1593   */\n      and\n        /* \"#utility.yul\":1528:1593   */\n      swap1\n      pop\n        /* \"#utility.yul\":1473:1599   */\n      swap2\n      swap1\n      pop\n      jump\t// out\n        /* \"#utility.yul\":1605:1701   */\n    tag_33:\n        /* \"#utility.yul\":1642:1649   */\n      0x00\n        /* \"#utility.yul\":1671:1695   */\n      tag_59\n        /* \"#utility.yul\":1689:1694   */\n      dup3\n        /* \"#utility.yul\":1671:1695   */\n      tag_32\n      jump\t// in\n    tag_59:\n        /* \"#utility.yul\":1660:1695   */\n      swap1\n      pop\n        /* \"#utility.yul\":1605:1701   */\n      swap2\n      swap1\n      pop\n      jump\t// out\n        /* \"#utility.yul\":1707:1815   */\n    tag_34:\n        /* \"#utility.yul\":1784:1808   */\n      tag_61\n        /* \"#utility.yul\":1802:1807   */\n      dup2\n        /* \"#utility.yul\":1784:1808   */\n      tag_33\n      jump\t// in\n    tag_61:\n        /* \"#utility.yul\":1779:1782   */\n      dup3\n        /* \"#utility.yul\":1772:1809   */\n      mstore\n        /* \"#utility.yul\":1707:1815   */\n      pop\n      pop\n      jump\t// out\n        /* \"#utility.yul\":1821:2000   */\n    tag_35:\n        /* \"#utility.yul\":1890:1900   */\n      0x00\n        /* \"#utility.yul\":1911:1957   */\n      tag_63\n        /* \"#utility.yul\":1953:1956   */\n      dup4\n        /* \"#utility.yul\":1945:1951   */\n      dup4\n        /* \"#utility.yul\":1911:1957   */\n      tag_34\n      jump\t// in\n    tag_63:\n        /* \"#utility.yul\":1989:1993   */\n      0x20\n        /* \"#utility.yul\":1984:1987   */\n      dup4\n        /* \"#utility.yul\":1980:1994   */\n      add\n        /* \"#utility.yul\":1966:1994   */\n      swap1\n      pop\n        /* \"#utility.yul\":1821:2000   */\n      swap3\n      swap2\n      pop\n      pop\n      jump\t// out\n        /* \"#utility.yul\":2006:2119   */\n    tag_36:\n        /* \"#utility.yul\":2076:2080   */\n      0x00\n        /* \"#utility.yul\":2108:2112   */\n      0x20\n        /* \"#utility.yul\":2103:2106   */\n      dup3\n        /* \"#utility.yul\":2099:2113   */\n      add\n        /* \"#utility.yul\":2091:2113   */\n      swap1\n      pop\n        /* \"#utility.yul\":2006:2119   */\n      swap2\n      swap1\n      pop\n      jump\t// out\n        /* \"#utility.yul\":2155:2887   */\n    tag_37:\n        /* \"#utility.yul\":2274:2277   */\n      0x00\n        /* \"#utility.yul\":2303:2357   */\n      tag_66\n        /* \"#utility.yul\":2351:2356   */\n      dup3\n        /* \"#utility.yul\":2303:2357   */\n      tag_29\n      jump\t// in\n    tag_66:\n        /* \"#utility.yul\":2373:2459   */\n      tag_67\n        /* \"#utility.yul\":2452:2458   */\n      dup2\n        /* \"#utility.yul\":2447:2450   */\n      dup6\n        /* \"#utility.yul\":2373:2459   */\n      tag_30\n      jump\t// in\n    tag_67:\n        /* \"#utility.yul\":2366:2459   */\n      swap4\n      pop\n        /* \"#utility.yul\":2483:2539   */\n      tag_68\n        /* \"#utility.yul\":2533:2538   */\n      dup4\n        /* \"#utility.yul\":2483:2539   */\n      tag_31\n      jump\t// in\n    tag_68:\n        /* \"#utility.yul\":2562:2569   */\n      dup1\n        /* \"#utility.yul\":2593:2594   */\n      0x00\n        /* \"#utility.yul\":2578:2862   */\n    tag_69:\n        /* \"#utility.yul\":2603:2609   */\n      dup4\n        /* \"#utility.yul\":2600:2601   */\n      dup2\n        /* \"#utility.yul\":2597:2610   */\n      lt\n        /* \"#utility.yul\":2578:2862   */\n      iszero\n      tag_71\n      jumpi\n        /* \"#utility.yul\":2679:2685   */\n      dup2\n        /* \"#utility.yul\":2673:2686   */\n      mload\n        /* \"#utility.yul\":2706:2769   */\n      tag_72\n        /* \"#utility.yul\":2765:2768   */\n      dup9\n        /* \"#utility.yul\":2750:2763   */\n      dup3\n        /* \"#utility.yul\":2706:2769   */\n      tag_35\n      jump\t// in\n    tag_72:\n        /* \"#utility.yul\":2699:2769   */\n      swap8\n      pop\n        /* \"#utility.yul\":2792:2852   */\n      tag_73\n        /* \"#utility.yul\":2845:2851   */\n      dup4\n        /* \"#utility.yul\":2792:2852   */\n      tag_36\n      jump\t// in\n    tag_73:\n        /* \"#utility.yul\":2782:2852   */\n      swap3\n      pop\n        /* \"#utility.yul\":2638:2862   */\n      pop\n        /* \"#utility.yul\":2625:2626   */\n      0x01\n        /* \"#utility.yul\":2622:2623   */\n      dup2\n        /* \"#utility.yul\":2618:2627   */\n      add\n        /* \"#utility.yul\":2613:2627   */\n      swap1\n      pop\n        /* \"#utility.yul\":2578:2862   */\n      jump(tag_69)\n    tag_71:\n        /* \"#utility.yul\":2582:2596   */\n      pop\n        /* \"#utility.yul\":2878:2881   */\n      dup6\n        /* \"#utility.yul\":2871:2881   */\n      swap4\n      pop\n        /* \"#utility.yul\":2279:2887   */\n      pop\n      pop\n      pop\n        /* \"#utility.yul\":2155:2887   */\n      swap3\n      swap2\n      pop\n      pop\n      jump\t// out\n        /* \"#utility.yul\":2893:3266   */\n    tag_12:\n        /* \"#utility.yul\":3036:3040   */\n      0x00\n        /* \"#utility.yul\":3074:3076   */\n      0x20\n        /* \"#utility.yul\":3063:3072   */\n      dup3\n        /* \"#utility.yul\":3059:3077   */\n      add\n        /* \"#utility.yul\":3051:3077   */\n      swap1\n      pop\n        /* \"#utility.yul\":3123:3132   */\n      dup2\n        /* \"#utility.yul\":3117:3121   */\n      dup2\n        /* \"#utility.yul\":3113:3133   */\n      sub\n        /* \"#utility.yul\":3109:3110   */\n      0x00\n        /* \"#utility.yul\":3098:3107   */\n      dup4\n        /* \"#utility.yul\":3094:3111   */\n      add\n        /* \"#utility.yul\":3087:3134   */\n      mstore\n        /* \"#utility.yul\":3151:3259   */\n      tag_75\n        /* \"#utility.yul\":3254:3258   */\n      dup2\n        /* \"#utility.yul\":3245:3251   */\n      dup5\n        /* \"#utility.yul\":3151:3259   */\n      tag_37\n      jump\t// in\n    tag_75:\n        /* \"#utility.yul\":3143:3259   */\n      swap1\n      pop\n        /* \"#utility.yul\":2893:3266   */\n      swap3\n      swap2\n      pop\n      pop\n      jump\t// out\n        /* \"#utility.yul\":3272:3390   */\n    tag_38:\n        /* \"#utility.yul\":3359:3383   */\n      tag_77\n        /* \"#utility.yul\":3377:3382   */\n      dup2\n        /* \"#utility.yul\":3359:3383   */\n      tag_26\n      jump\t// in\n    tag_77:\n        /* \"#utility.yul\":3354:3357   */\n      dup3\n        /* \"#utility.yul\":3347:3384   */\n      mstore\n        /* \"#utility.yul\":3272:3390   */\n      pop\n      pop\n      jump\t// out\n        /* \"#utility.yul\":3396:3514   */\n    tag_39:\n        /* \"#utility.yul\":3483:3507   */\n      tag_79\n        /* \"#utility.yul\":3501:3506   */\n      dup2\n        /* \"#utility.yul\":3483:3507   */\n      tag_33\n      jump\t// in\n    tag_79:\n        /* \"#utility.yul\":3478:3481   */\n      dup3\n        /* \"#utility.yul\":3471:3508   */\n      mstore\n        /* \"#utility.yul\":3396:3514   */\n      pop\n      pop\n      jump\t// out\n        /* \"#utility.yul\":3520:3852   */\n    tag_17:\n        /* \"#utility.yul\":3641:3645   */\n      0x00\n        /* \"#utility.yul\":3679:3681   */\n      0x40\n        /* \"#utility.yul\":3668:3677   */\n      dup3\n        /* \"#utility.yul\":3664:3682   */\n      add\n        /* \"#utility.yul\":3656:3682   */\n      swap1\n      pop\n        /* \"#utility.yul\":3692:3763   */\n      tag_81\n        /* \"#utility.yul\":3760:3761   */\n      0x00\n        /* \"#utility.yul\":3749:3758   */\n      dup4\n        /* \"#utility.yul\":3745:3762   */\n      add\n        /* \"#utility.yul\":3736:3742   */\n      dup6\n        /* \"#utility.yul\":3692:3763   */\n      tag_38\n      jump\t// in\n    tag_81:\n        /* \"#utility.yul\":3773:3845   */\n      tag_82\n        /* \"#utility.yul\":3841:3843   */\n      0x20\n        /* \"#utility.yul\":3830:3839   */\n      dup4\n        /* \"#utility.yul\":3826:3844   */\n      add\n        /* \"#utility.yul\":3817:3823   */\n      dup5\n        /* \"#utility.yul\":3773:3845   */\n      tag_39\n      jump\t// in\n    tag_82:\n        /* \"#utility.yul\":3520:3852   */\n      swap4\n      swap3\n      pop\n      pop\n      pop\n      jump\t// out\n    stop\n\n    sub_0: assembly {\n            /* \"Campaign.sol\":431:2533  contract Campaign {... */\n          mstore(0x40, 0x80)\n            /* \"Campaign.sol\":911:1079  constructor(uint minimum, address creator) { //minimum in wei... */\n          callvalue\n          dup1\n          iszero\n          tag_1\n          jumpi\n          0x00\n          dup1\n          revert\n        tag_1:\n          pop\n          mload(0x40)\n          sub(codesize, bytecodeSize)\n          dup1\n          bytecodeSize\n          dup4\n          codecopy\n          dup2\n          dup2\n          add\n          0x40\n          mstore\n          dup2\n          add\n          swap1\n          tag_2\n          swap2\n          swap1\n          tag_3\n          jump\t// in\n        tag_2:\n            /* \"Campaign.sol\":991:998  creator */\n          dup1\n            /* \"Campaign.sol\":981:988  manager */\n          0x00\n          dup1\n            /* \"Campaign.sol\":981:998  manager = creator */\n          0x0100\n          exp\n          dup2\n          sload\n          dup2\n          0xffffffffffffffffffffffffffffffffffffffff\n          mul\n          not\n          and\n          swap1\n          dup4\n          0xffffffffffffffffffffffffffffffffffffffff\n          and\n          mul\n          or\n          swap1\n          sstore\n          pop\n            /* \"Campaign.sol\":1065:1072  minimum */\n          dup2\n            /* \"Campaign.sol\":1042:1061  minimunContribution */\n          0x01\n            /* \"Campaign.sol\":1042:1072  minimunContribution  = minimum */\n          dup2\n          swap1\n          sstore\n          pop\n            /* \"Campaign.sol\":911:1079  constructor(uint minimum, address creator) { //minimum in wei... */\n          pop\n          pop\n            /* \"Campaign.sol\":431:2533  contract Campaign {... */\n          jump(tag_6)\n            /* \"#utility.yul\":88:205   */\n        tag_8:\n            /* \"#utility.yul\":197:198   */\n          0x00\n            /* \"#utility.yul\":194:195   */\n          dup1\n            /* \"#utility.yul\":187:199   */\n          revert\n            /* \"#utility.yul\":334:411   */\n        tag_10:\n            /* \"#utility.yul\":371:378   */\n          0x00\n            /* \"#utility.yul\":400:405   */\n          dup2\n            /* \"#utility.yul\":389:405   */\n          swap1\n          pop\n            /* \"#utility.yul\":334:411   */\n          swap2\n          swap1\n          pop\n          jump\t// out\n            /* \"#utility.yul\":417:539   */\n        tag_11:\n            /* \"#utility.yul\":490:514   */\n          tag_23\n            /* \"#utility.yul\":508:513   */\n          dup2\n            /* \"#utility.yul\":490:514   */\n          tag_10\n          jump\t// in\n        tag_23:\n            /* \"#utility.yul\":483:488   */\n          dup2\n            /* \"#utility.yul\":480:515   */\n          eq\n            /* \"#utility.yul\":470:533   */\n          tag_24\n          jumpi\n            /* \"#utility.yul\":529:530   */\n          0x00\n            /* \"#utility.yul\":526:527   */\n          dup1\n            /* \"#utility.yul\":519:531   */\n          revert\n            /* \"#utility.yul\":470:533   */\n        tag_24:\n            /* \"#utility.yul\":417:539   */\n          pop\n          jump\t// out\n            /* \"#utility.yul\":545:688   */\n        tag_12:\n            /* \"#utility.yul\":602:607   */\n          0x00\n            /* \"#utility.yul\":633:639   */\n          dup2\n            /* \"#utility.yul\":627:640   */\n          mload\n            /* \"#utility.yul\":618:640   */\n          swap1\n          pop\n            /* \"#utility.yul\":649:682   */\n          tag_26\n            /* \"#utility.yul\":676:681   */\n          dup2\n            /* \"#utility.yul\":649:682   */\n          tag_11\n          jump\t// in\n        tag_26:\n            /* \"#utility.yul\":545:688   */\n          swap3\n          swap2\n          pop\n          pop\n          jump\t// out\n            /* \"#utility.yul\":694:820   */\n        tag_13:\n            /* \"#utility.yul\":731:738   */\n          0x00\n            /* \"#utility.yul\":771:813   */\n          0xffffffffffffffffffffffffffffffffffffffff\n            /* \"#utility.yul\":764:769   */\n          dup3\n            /* \"#utility.yul\":760:814   */\n          and\n            /* \"#utility.yul\":749:814   */\n          swap1\n          pop\n            /* \"#utility.yul\":694:820   */\n          swap2\n          swap1\n          pop\n          jump\t// out\n            /* \"#utility.yul\":826:922   */\n        tag_14:\n            /* \"#utility.yul\":863:870   */\n          0x00\n            /* \"#utility.yul\":892:916   */\n          tag_29\n            /* \"#utility.yul\":910:915   */\n          dup3\n            /* \"#utility.yul\":892:916   */\n          tag_13\n          jump\t// in\n        tag_29:\n            /* \"#utility.yul\":881:916   */\n          swap1\n          pop\n            /* \"#utility.yul\":826:922   */\n          swap2\n          swap1\n          pop\n          jump\t// out\n            /* \"#utility.yul\":928:1050   */\n        tag_15:\n            /* \"#utility.yul\":1001:1025   */\n          tag_31\n            /* \"#utility.yul\":1019:1024   */\n          dup2\n            /* \"#utility.yul\":1001:1025   */\n          tag_14\n          jump\t// in\n        tag_31:\n            /* \"#utility.yul\":994:999   */\n          dup2\n            /* \"#utility.yul\":991:1026   */\n          eq\n            /* \"#utility.yul\":981:1044   */\n          tag_32\n          jumpi\n            /* \"#utility.yul\":1040:1041   */\n          0x00\n            /* \"#utility.yul\":1037:1038   */\n          dup1\n            /* \"#utility.yul\":1030:1042   */\n          revert\n            /* \"#utility.yul\":981:1044   */\n        tag_32:\n            /* \"#utility.yul\":928:1050   */\n          pop\n          jump\t// out\n            /* \"#utility.yul\":1056:1199   */\n        tag_16:\n            /* \"#utility.yul\":1113:1118   */\n          0x00\n            /* \"#utility.yul\":1144:1150   */\n          dup2\n            /* \"#utility.yul\":1138:1151   */\n          mload\n            /* \"#utility.yul\":1129:1151   */\n          swap1\n          pop\n            /* \"#utility.yul\":1160:1193   */\n          tag_34\n            /* \"#utility.yul\":1187:1192   */\n          dup2\n            /* \"#utility.yul\":1160:1193   */\n          tag_15\n          jump\t// in\n        tag_34:\n            /* \"#utility.yul\":1056:1199   */\n          swap3\n          swap2\n          pop\n          pop\n          jump\t// out\n            /* \"#utility.yul\":1205:1712   */\n        tag_3:\n            /* \"#utility.yul\":1284:1290   */\n          0x00\n            /* \"#utility.yul\":1292:1298   */\n          dup1\n            /* \"#utility.yul\":1341:1343   */\n          0x40\n            /* \"#utility.yul\":1329:1338   */\n          dup4\n            /* \"#utility.yul\":1320:1327   */\n          dup6\n            /* \"#utility.yul\":1316:1339   */\n          sub\n            /* \"#utility.yul\":1312:1344   */\n          slt\n            /* \"#utility.yul\":1309:1428   */\n          iszero\n          tag_36\n          jumpi\n            /* \"#utility.yul\":1347:1426   */\n          tag_37\n          tag_8\n          jump\t// in\n        tag_37:\n            /* \"#utility.yul\":1309:1428   */\n        tag_36:\n            /* \"#utility.yul\":1467:1468   */\n          0x00\n            /* \"#utility.yul\":1492:1556   */\n          tag_38\n            /* \"#utility.yul\":1548:1555   */\n          dup6\n            /* \"#utility.yul\":1539:1545   */\n          dup3\n            /* \"#utility.yul\":1528:1537   */\n          dup7\n            /* \"#utility.yul\":1524:1546   */\n          add\n            /* \"#utility.yul\":1492:1556   */\n          tag_12\n          jump\t// in\n        tag_38:\n            /* \"#utility.yul\":1482:1556   */\n          swap3\n          pop\n            /* \"#utility.yul\":1438:1566   */\n          pop\n            /* \"#utility.yul\":1605:1607   */\n          0x20\n            /* \"#utility.yul\":1631:1695   */\n          tag_39\n            /* \"#utility.yul\":1687:1694   */\n          dup6\n            /* \"#utility.yul\":1678:1684   */\n          dup3\n            /* \"#utility.yul\":1667:1676   */\n          dup7\n            /* \"#utility.yul\":1663:1685   */\n          add\n            /* \"#utility.yul\":1631:1695   */\n          tag_16\n          jump\t// in\n        tag_39:\n            /* \"#utility.yul\":1621:1695   */\n          swap2\n          pop\n            /* \"#utility.yul\":1576:1705   */\n          pop\n            /* \"#utility.yul\":1205:1712   */\n          swap3\n          pop\n          swap3\n          swap1\n          pop\n          jump\t// out\n            /* \"Campaign.sol\":431:2533  contract Campaign {... */\n        tag_6:\n          dataSize(sub_0)\n          dup1\n          dataOffset(sub_0)\n          0x00\n          codecopy\n          0x00\n          return\n        stop\n\n        sub_0: assembly {\n                /* \"Campaign.sol\":431:2533  contract Campaign {... */\n              mstore(0x40, 0x80)\n              jumpi(tag_1, lt(calldatasize, 0x04))\n              shr(0xe0, calldataload(0x00))\n              dup1\n              0x8a9cfd55\n              gt\n              tag_12\n              jumpi\n              dup1\n              0x8a9cfd55\n              eq\n              tag_7\n              jumpi\n              dup1\n              0x8b7afe2e\n              eq\n              tag_8\n              jumpi\n              dup1\n              0xa7f33715\n              eq\n              tag_9\n              jumpi\n              dup1\n              0xd7bb99ba\n              eq\n              tag_10\n              jumpi\n              dup1\n              0xd7d1bbdb\n              eq\n              tag_11\n              jumpi\n              jump(tag_1)\n            tag_12:\n              dup1\n              0x03441006\n              eq\n              tag_2\n              jumpi\n              dup1\n              0x0a144391\n              eq\n              tag_3\n              jumpi\n              dup1\n              0x481c6a75\n              eq\n              tag_4\n              jumpi\n              dup1\n              0x81d12c58\n              eq\n              tag_5\n              jumpi\n              dup1\n              0x82fde093\n              eq\n              tag_6\n              jumpi\n            tag_1:\n              0x00\n              dup1\n              revert\n                /* \"Campaign.sol\":1995:2295  function finalizeRequest(uint _index) public onlyManager {... */\n            tag_2:\n              callvalue\n              dup1\n              iszero\n              tag_13\n              jumpi\n              0x00\n              dup1\n              revert\n            tag_13:\n              pop\n              tag_14\n              0x04\n              dup1\n              calldatasize\n              sub\n              dup2\n              add\n              swap1\n              tag_15\n              swap2\n              swap1\n              tag_16\n              jump\t// in\n            tag_15:\n              tag_17\n              jump\t// in\n            tag_14:\n              stop\n                /* \"Campaign.sol\":727:768  mapping(address => bool) public approvers */\n            tag_3:\n              callvalue\n              dup1\n              iszero\n              tag_18\n              jumpi\n              0x00\n              dup1\n              revert\n            tag_18:\n              pop\n              tag_19\n              0x04\n              dup1\n              calldatasize\n              sub\n              dup2\n              add\n              swap1\n              tag_20\n              swap2\n              swap1\n              tag_21\n              jump\t// in\n            tag_20:\n              tag_22\n              jump\t// in\n            tag_19:\n              mload(0x40)\n              tag_23\n              swap2\n              swap1\n              tag_24\n              jump\t// in\n            tag_23:\n              mload(0x40)\n              dup1\n              swap2\n              sub\n              swap1\n              return\n                /* \"Campaign.sol\":662:684  address public manager */\n            tag_4:\n              callvalue\n              dup1\n              iszero\n              tag_25\n              jumpi\n              0x00\n              dup1\n              revert\n            tag_25:\n              pop\n              tag_26\n              tag_27\n              jump\t// in\n            tag_26:\n              mload(0x40)\n              tag_28\n              swap2\n              swap1\n              tag_29\n              jump\t// in\n            tag_28:\n              mload(0x40)\n              dup1\n              swap2\n              sub\n              swap1\n              return\n                /* \"Campaign.sol\":774:814  mapping(uint => Request) public requests */\n            tag_5:\n              callvalue\n              dup1\n              iszero\n              tag_30\n              jumpi\n              0x00\n              dup1\n              revert\n            tag_30:\n              pop\n              tag_31\n              0x04\n              dup1\n              calldatasize\n              sub\n              dup2\n              add\n              swap1\n              tag_32\n              swap2\n              swap1\n              tag_16\n              jump\t// in\n            tag_32:\n              tag_33\n              jump\t// in\n            tag_31:\n              mload(0x40)\n              tag_34\n              swap6\n              swap5\n              swap4\n              swap3\n              swap2\n              swap1\n              tag_35\n              jump\t// in\n            tag_34:\n              mload(0x40)\n              dup1\n              swap2\n              sub\n              swap1\n              return\n                /* \"Campaign.sol\":853:879  uint public approversCount */\n            tag_6:\n              callvalue\n              dup1\n              iszero\n              tag_36\n              jumpi\n              0x00\n              dup1\n              revert\n            tag_36:\n              pop\n              tag_37\n              tag_38\n              jump\t// in\n            tag_37:\n              mload(0x40)\n              tag_39\n              swap2\n              swap1\n              tag_40\n              jump\t// in\n            tag_39:\n              mload(0x40)\n              dup1\n              swap2\n              sub\n              swap1\n              return\n                /* \"Campaign.sol\":1257:1709  function createRequest(string memory description, uint value, address payable recipient) public onlyManager {... */\n            tag_7:\n              callvalue\n              dup1\n              iszero\n              tag_41\n              jumpi\n              0x00\n              dup1\n              revert\n            tag_41:\n              pop\n              tag_42\n              0x04\n              dup1\n              calldatasize\n              sub\n              dup2\n              add\n              swap1\n              tag_43\n              swap2\n              swap1\n              tag_44\n              jump\t// in\n            tag_43:\n              tag_45\n              jump\t// in\n            tag_42:\n              stop\n                /* \"Campaign.sol\":820:847  uint public contractBalance */\n            tag_8:\n              callvalue\n              dup1\n              iszero\n              tag_46\n              jumpi\n              0x00\n              dup1\n              revert\n            tag_46:\n              pop\n              tag_47\n              tag_48\n              jump\t// in\n            tag_47:\n              mload(0x40)\n              tag_49\n              swap2\n              swap1\n              tag_40\n              jump\t// in\n            tag_49:\n              mload(0x40)\n              dup1\n              swap2\n              sub\n              swap1\n              return\n                /* \"Campaign.sol\":690:721  uint public minimunContribution */\n            tag_9:\n              callvalue\n              dup1\n              iszero\n              tag_50\n              jumpi\n              0x00\n              dup1\n              revert\n            tag_50:\n              pop\n              tag_51\n              tag_52\n              jump\t// in\n            tag_51:\n              mload(0x40)\n              tag_53\n              swap2\n              swap1\n              tag_40\n              jump\t// in\n            tag_53:\n              mload(0x40)\n              dup1\n              swap2\n              sub\n              swap1\n              return\n                /* \"Campaign.sol\":1085:1251  function contribute() public payable _minimum {... */\n            tag_10:\n              tag_54\n              tag_55\n              jump\t// in\n            tag_54:\n              stop\n                /* \"Campaign.sol\":1715:1989  function approveRequest(uint _index) public {... */\n            tag_11:\n              callvalue\n              dup1\n              iszero\n              tag_56\n              jumpi\n              0x00\n              dup1\n              revert\n            tag_56:\n              pop\n              tag_57\n              0x04\n              dup1\n              calldatasize\n              sub\n              dup2\n              add\n              swap1\n              tag_58\n              swap2\n              swap1\n              tag_16\n              jump\t// in\n            tag_58:\n              tag_59\n              jump\t// in\n            tag_57:\n              stop\n                /* \"Campaign.sol\":1995:2295  function finalizeRequest(uint _index) public onlyManager {... */\n            tag_17:\n                /* \"Campaign.sol\":2342:2351  approvers */\n              0x02\n                /* \"Campaign.sol\":2342:2363  approvers[msg.sender] */\n              0x00\n                /* \"Campaign.sol\":2352:2362  msg.sender */\n              caller\n                /* \"Campaign.sol\":2342:2363  approvers[msg.sender] */\n              0xffffffffffffffffffffffffffffffffffffffff\n              and\n              0xffffffffffffffffffffffffffffffffffffffff\n              and\n              dup2\n              mstore\n              0x20\n              add\n              swap1\n              dup2\n              mstore\n              0x20\n              add\n              0x00\n              keccak256\n              0x00\n              swap1\n              sload\n              swap1\n              0x0100\n              exp\n              swap1\n              div\n              0xff\n              and\n                /* \"Campaign.sol\":2334:2364  require(approvers[msg.sender]) */\n              tag_61\n              jumpi\n              0x00\n              dup1\n              revert\n            tag_61:\n                /* \"Campaign.sol\":2062:2085  Request storage request */\n              0x00\n                /* \"Campaign.sol\":2088:2096  requests */\n              0x03\n                /* \"Campaign.sol\":2088:2104  requests[_index] */\n              0x00\n                /* \"Campaign.sol\":2097:2103  _index */\n              dup4\n                /* \"Campaign.sol\":2088:2104  requests[_index] */\n              dup2\n              mstore\n              0x20\n              add\n              swap1\n              dup2\n              mstore\n              0x20\n              add\n              0x00\n              keccak256\n                /* \"Campaign.sol\":2062:2104  Request storage request = requests[_index] */\n              swap1\n              pop\n                /* \"Campaign.sol\":2165:2166  2 */\n              0x02\n                /* \"Campaign.sol\":2148:2162  approversCount */\n              sload(0x05)\n                /* \"Campaign.sol\":2148:2166  approversCount / 2 */\n              tag_63\n              swap2\n              swap1\n              tag_64\n              jump\t// in\n            tag_63:\n                /* \"Campaign.sol\":2122:2129  request */\n              dup2\n                /* \"Campaign.sol\":2122:2144  request.approvalsCount */\n              0x03\n              add\n              sload\n                /* \"Campaign.sol\":2122:2167  request.approvalsCount > (approversCount / 2) */\n              gt\n                /* \"Campaign.sol\":2114:2168  require(request.approvalsCount > (approversCount / 2)) */\n              tag_65\n              jumpi\n              0x00\n              dup1\n              revert\n            tag_65:\n                /* \"Campaign.sol\":2187:2194  request */\n              dup1\n                /* \"Campaign.sol\":2187:2203  request.complete */\n              0x02\n              add\n              0x14\n              swap1\n              sload\n              swap1\n              0x0100\n              exp\n              swap1\n              div\n              0xff\n              and\n                /* \"Campaign.sol\":2186:2203  !request.complete */\n              iszero\n                /* \"Campaign.sol\":2178:2204  require(!request.complete) */\n              tag_66\n              jumpi\n              0x00\n              dup1\n              revert\n            tag_66:\n                /* \"Campaign.sol\":2214:2221  request */\n              dup1\n                /* \"Campaign.sol\":2214:2231  request.recipient */\n              0x02\n              add\n              0x00\n              swap1\n              sload\n              swap1\n              0x0100\n              exp\n              swap1\n              div\n              0xffffffffffffffffffffffffffffffffffffffff\n              and\n                /* \"Campaign.sol\":2214:2240  request.recipient.transfer */\n              0xffffffffffffffffffffffffffffffffffffffff\n              and\n                /* \"Campaign.sol\":2214:2255  request.recipient.transfer(request.value) */\n              0x08fc\n                /* \"Campaign.sol\":2241:2248  request */\n              dup3\n                /* \"Campaign.sol\":2241:2254  request.value */\n              0x01\n              add\n              sload\n                /* \"Campaign.sol\":2214:2255  request.recipient.transfer(request.value) */\n              swap1\n              dup2\n              iszero\n              mul\n              swap1\n              mload(0x40)\n              0x00\n              mload(0x40)\n              dup1\n              dup4\n              sub\n              dup2\n              dup6\n              dup9\n              dup9\n              call\n              swap4\n              pop\n              pop\n              pop\n              pop\n              iszero\n              dup1\n              iszero\n              tag_68\n              jumpi\n              returndatasize\n              0x00\n              dup1\n              returndatacopy\n              revert(0x00, returndatasize)\n            tag_68:\n              pop\n                /* \"Campaign.sol\":2284:2288  true */\n              0x01\n                /* \"Campaign.sol\":2265:2272  request */\n              dup2\n                /* \"Campaign.sol\":2265:2281  request.complete */\n              0x02\n              add\n              0x14\n                /* \"Campaign.sol\":2265:2288  request.complete = true */\n              0x0100\n              exp\n              dup2\n              sload\n              dup2\n              0xff\n              mul\n              not\n              and\n              swap1\n              dup4\n              iszero\n              iszero\n              mul\n              or\n              swap1\n              sstore\n              pop\n                /* \"Campaign.sol\":2052:2295  {... */\n              pop\n                /* \"Campaign.sol\":1995:2295  function finalizeRequest(uint _index) public onlyManager {... */\n              pop\n              jump\t// out\n                /* \"Campaign.sol\":727:768  mapping(address => bool) public approvers */\n            tag_22:\n              mstore(0x20, 0x02)\n              dup1\n              0x00\n              mstore\n              keccak256(0x00, 0x40)\n              0x00\n              swap2\n              pop\n              sload\n              swap1\n              0x0100\n              exp\n              swap1\n              div\n              0xff\n              and\n              dup2\n              jump\t// out\n                /* \"Campaign.sol\":662:684  address public manager */\n            tag_27:\n              0x00\n              dup1\n              sload\n              swap1\n              0x0100\n              exp\n              swap1\n              div\n              0xffffffffffffffffffffffffffffffffffffffff\n              and\n              dup2\n              jump\t// out\n                /* \"Campaign.sol\":774:814  mapping(uint => Request) public requests */\n            tag_33:\n              mstore(0x20, 0x03)\n              dup1\n              0x00\n              mstore\n              keccak256(0x00, 0x40)\n              0x00\n              swap2\n              pop\n              swap1\n              pop\n              dup1\n              0x00\n              add\n              dup1\n              sload\n              tag_69\n              swap1\n              tag_70\n              jump\t// in\n            tag_69:\n              dup1\n              0x1f\n              add\n              0x20\n              dup1\n              swap2\n              div\n              mul\n              0x20\n              add\n              mload(0x40)\n              swap1\n              dup2\n              add\n              0x40\n              mstore\n              dup1\n              swap3\n              swap2\n              swap1\n              dup2\n              dup2\n              mstore\n              0x20\n              add\n              dup3\n              dup1\n              sload\n              tag_71\n              swap1\n              tag_70\n              jump\t// in\n            tag_71:\n              dup1\n              iszero\n              tag_72\n              jumpi\n              dup1\n              0x1f\n              lt\n              tag_73\n              jumpi\n              0x0100\n              dup1\n              dup4\n              sload\n              div\n              mul\n              dup4\n              mstore\n              swap2\n              0x20\n              add\n              swap2\n              jump(tag_72)\n            tag_73:\n              dup3\n              add\n              swap2\n              swap1\n              0x00\n              mstore\n              keccak256(0x00, 0x20)\n              swap1\n            tag_74:\n              dup2\n              sload\n              dup2\n              mstore\n              swap1\n              0x01\n              add\n              swap1\n              0x20\n              add\n              dup1\n              dup4\n              gt\n              tag_74\n              jumpi\n              dup3\n              swap1\n              sub\n              0x1f\n              and\n              dup3\n              add\n              swap2\n            tag_72:\n              pop\n              pop\n              pop\n              pop\n              pop\n              swap1\n              dup1\n              0x01\n              add\n              sload\n              swap1\n              dup1\n              0x02\n              add\n              0x00\n              swap1\n              sload\n              swap1\n              0x0100\n              exp\n              swap1\n              div\n              0xffffffffffffffffffffffffffffffffffffffff\n              and\n              swap1\n              dup1\n              0x02\n              add\n              0x14\n              swap1\n              sload\n              swap1\n              0x0100\n              exp\n              swap1\n              div\n              0xff\n              and\n              swap1\n              dup1\n              0x03\n              add\n              sload\n              swap1\n              pop\n              dup6\n              jump\t// out\n                /* \"Campaign.sol\":853:879  uint public approversCount */\n            tag_38:\n              sload(0x05)\n              dup2\n              jump\t// out\n                /* \"Campaign.sol\":1257:1709  function createRequest(string memory description, uint value, address payable recipient) public onlyManager {... */\n            tag_45:\n                /* \"Campaign.sol\":2342:2351  approvers */\n              0x02\n                /* \"Campaign.sol\":2342:2363  approvers[msg.sender] */\n              0x00\n                /* \"Campaign.sol\":2352:2362  msg.sender */\n              caller\n                /* \"Campaign.sol\":2342:2363  approvers[msg.sender] */\n              0xffffffffffffffffffffffffffffffffffffffff\n              and\n              0xffffffffffffffffffffffffffffffffffffffff\n              and\n              dup2\n              mstore\n              0x20\n              add\n              swap1\n              dup2\n              mstore\n              0x20\n              add\n              0x00\n              keccak256\n              0x00\n              swap1\n              sload\n              swap1\n              0x0100\n              exp\n              swap1\n              div\n              0xff\n              and\n                /* \"Campaign.sol\":2334:2364  require(approvers[msg.sender]) */\n              tag_76\n              jumpi\n              0x00\n              dup1\n              revert\n            tag_76:\n                /* \"Campaign.sol\":1375:1401  Request storage newRequest */\n              0x00\n                /* \"Campaign.sol\":1404:1412  requests */\n              0x03\n                /* \"Campaign.sol\":1404:1421  requests[index++] */\n              0x00\n                /* \"Campaign.sol\":1413:1418  index */\n              0x06\n              0x00\n                /* \"Campaign.sol\":1413:1420  index++ */\n              dup2\n              sload\n              dup1\n              swap3\n              swap2\n              swap1\n              tag_78\n              swap1\n              tag_79\n              jump\t// in\n            tag_78:\n              swap2\n              swap1\n              pop\n              sstore\n                /* \"Campaign.sol\":1404:1421  requests[index++] */\n              dup2\n              mstore\n              0x20\n              add\n              swap1\n              dup2\n              mstore\n              0x20\n              add\n              0x00\n              keccak256\n                /* \"Campaign.sol\":1375:1421  Request storage newRequest = requests[index++] */\n              swap1\n              pop\n                /* \"Campaign.sol\":1456:1467  description */\n              dup4\n                /* \"Campaign.sol\":1431:1441  newRequest */\n              dup2\n                /* \"Campaign.sol\":1431:1453  newRequest.description */\n              0x00\n              add\n                /* \"Campaign.sol\":1431:1467  newRequest.description = description */\n              swap1\n              dup2\n              tag_80\n              swap2\n              swap1\n              tag_81\n              jump\t// in\n            tag_80:\n              pop\n                /* \"Campaign.sol\":1496:1501  value */\n              dup3\n                /* \"Campaign.sol\":1477:1487  newRequest */\n              dup2\n                /* \"Campaign.sol\":1477:1493  newRequest.value */\n              0x01\n              add\n                /* \"Campaign.sol\":1477:1501  newRequest.value = value */\n              dup2\n              swap1\n              sstore\n              pop\n                /* \"Campaign.sol\":1534:1543  recipient */\n              dup2\n                /* \"Campaign.sol\":1511:1521  newRequest */\n              dup2\n                /* \"Campaign.sol\":1511:1531  newRequest.recipient */\n              0x02\n              add\n              0x00\n                /* \"Campaign.sol\":1511:1543  newRequest.recipient = recipient */\n              0x0100\n              exp\n              dup2\n              sload\n              dup2\n              0xffffffffffffffffffffffffffffffffffffffff\n              mul\n              not\n              and\n              swap1\n              dup4\n              0xffffffffffffffffffffffffffffffffffffffff\n              and\n              mul\n              or\n              swap1\n              sstore\n              pop\n                /* \"Campaign.sol\":1575:1580  false */\n              0x00\n                /* \"Campaign.sol\":1553:1563  newRequest */\n              dup2\n                /* \"Campaign.sol\":1553:1572  newRequest.complete */\n              0x02\n              add\n              0x14\n                /* \"Campaign.sol\":1553:1580  newRequest.complete = false */\n              0x0100\n              exp\n              dup2\n              sload\n              dup2\n              0xff\n              mul\n              not\n              and\n              swap1\n              dup4\n              iszero\n              iszero\n              mul\n              or\n              swap1\n              sstore\n              pop\n                /* \"Campaign.sol\":1618:1619  0 */\n              0x00\n                /* \"Campaign.sol\":1590:1600  newRequest */\n              dup2\n                /* \"Campaign.sol\":1590:1615  newRequest.approvalsCount */\n              0x03\n              add\n                /* \"Campaign.sol\":1590:1619  newRequest.approvalsCount = 0 */\n              dup2\n              swap1\n              sstore\n              pop\n                /* \"Campaign.sol\":1365:1709  {... */\n              pop\n                /* \"Campaign.sol\":1257:1709  function createRequest(string memory description, uint value, address payable recipient) public onlyManager {... */\n              pop\n              pop\n              pop\n              jump\t// out\n                /* \"Campaign.sol\":820:847  uint public contractBalance */\n            tag_48:\n              sload(0x04)\n              dup2\n              jump\t// out\n                /* \"Campaign.sol\":690:721  uint public minimunContribution */\n            tag_52:\n              sload(0x01)\n              dup2\n              jump\t// out\n                /* \"Campaign.sol\":1085:1251  function contribute() public payable _minimum {... */\n            tag_55:\n                /* \"Campaign.sol\":2439:2458  minimunContribution */\n              sload(0x01)\n                /* \"Campaign.sol\":2426:2435  msg.value */\n              callvalue\n                /* \"Campaign.sol\":2426:2458  msg.value >= minimunContribution */\n              lt\n              iszero\n                /* \"Campaign.sol\":2418:2459  require(msg.value >= minimunContribution) */\n              tag_83\n              jumpi\n              0x00\n              dup1\n              revert\n            tag_83:\n                /* \"Campaign.sol\":1165:1169  true */\n              0x01\n                /* \"Campaign.sol\":1141:1150  approvers */\n              0x02\n                /* \"Campaign.sol\":1141:1162  approvers[msg.sender] */\n              0x00\n                /* \"Campaign.sol\":1151:1161  msg.sender */\n              caller\n                /* \"Campaign.sol\":1141:1162  approvers[msg.sender] */\n              0xffffffffffffffffffffffffffffffffffffffff\n              and\n              0xffffffffffffffffffffffffffffffffffffffff\n              and\n              dup2\n              mstore\n              0x20\n              add\n              swap1\n              dup2\n              mstore\n              0x20\n              add\n              0x00\n              keccak256\n              0x00\n                /* \"Campaign.sol\":1141:1169  approvers[msg.sender] = true */\n              0x0100\n              exp\n              dup2\n              sload\n              dup2\n              0xff\n              mul\n              not\n              and\n              swap1\n              dup4\n              iszero\n              iszero\n              mul\n              or\n              swap1\n              sstore\n              pop\n                /* \"Campaign.sol\":1197:1218  address(this).balance */\n              selfbalance\n                /* \"Campaign.sol\":1179:1194  contractBalance */\n              0x04\n                /* \"Campaign.sol\":1179:1218  contractBalance = address(this).balance */\n              dup2\n              swap1\n              sstore\n              pop\n                /* \"Campaign.sol\":1228:1242  approversCount */\n              0x05\n              0x00\n                /* \"Campaign.sol\":1228:1244  approversCount++ */\n              dup2\n              sload\n              dup1\n              swap3\n              swap2\n              swap1\n              tag_85\n              swap1\n              tag_79\n              jump\t// in\n            tag_85:\n              swap2\n              swap1\n              pop\n              sstore\n              pop\n                /* \"Campaign.sol\":1085:1251  function contribute() public payable _minimum {... */\n              jump\t// out\n                /* \"Campaign.sol\":1715:1989  function approveRequest(uint _index) public {... */\n            tag_59:\n                /* \"Campaign.sol\":1769:1792  Request storage request */\n              0x00\n                /* \"Campaign.sol\":1795:1803  requests */\n              0x03\n                /* \"Campaign.sol\":1795:1811  requests[_index] */\n              0x00\n                /* \"Campaign.sol\":1804:1810  _index */\n              dup4\n                /* \"Campaign.sol\":1795:1811  requests[_index] */\n              dup2\n              mstore\n              0x20\n              add\n              swap1\n              dup2\n              mstore\n              0x20\n              add\n              0x00\n              keccak256\n                /* \"Campaign.sol\":1769:1811  Request storage request = requests[_index] */\n              swap1\n              pop\n                /* \"Campaign.sol\":1830:1839  approvers */\n              0x02\n                /* \"Campaign.sol\":1830:1851  approvers[msg.sender] */\n              0x00\n                /* \"Campaign.sol\":1840:1850  msg.sender */\n              caller\n                /* \"Campaign.sol\":1830:1851  approvers[msg.sender] */\n              0xffffffffffffffffffffffffffffffffffffffff\n              and\n              0xffffffffffffffffffffffffffffffffffffffff\n              and\n              dup2\n              mstore\n              0x20\n              add\n              swap1\n              dup2\n              mstore\n              0x20\n              add\n              0x00\n              keccak256\n              0x00\n              swap1\n              sload\n              swap1\n              0x0100\n              exp\n              swap1\n              div\n              0xff\n              and\n                /* \"Campaign.sol\":1822:1852  require(approvers[msg.sender]) */\n              tag_87\n              jumpi\n              0x00\n              dup1\n              revert\n            tag_87:\n                /* \"Campaign.sol\":1871:1878  request */\n              dup1\n                /* \"Campaign.sol\":1871:1888  request.approvals */\n              0x04\n              add\n                /* \"Campaign.sol\":1871:1900  request.approvals[msg.sender] */\n              0x00\n                /* \"Campaign.sol\":1889:1899  msg.sender */\n              caller\n                /* \"Campaign.sol\":1871:1900  request.approvals[msg.sender] */\n              0xffffffffffffffffffffffffffffffffffffffff\n              and\n              0xffffffffffffffffffffffffffffffffffffffff\n              and\n              dup2\n              mstore\n              0x20\n              add\n              swap1\n              dup2\n              mstore\n              0x20\n              add\n              0x00\n              keccak256\n              0x00\n              swap1\n              sload\n              swap1\n              0x0100\n              exp\n              swap1\n              div\n              0xff\n              and\n                /* \"Campaign.sol\":1870:1900  !request.approvals[msg.sender] */\n              iszero\n                /* \"Campaign.sol\":1862:1901  require(!request.approvals[msg.sender]) */\n              tag_88\n              jumpi\n              0x00\n              dup1\n              revert\n            tag_88:\n                /* \"Campaign.sol\":1944:1948  true */\n              0x01\n                /* \"Campaign.sol\":1912:1919  request */\n              dup2\n                /* \"Campaign.sol\":1912:1929  request.approvals */\n              0x04\n              add\n                /* \"Campaign.sol\":1912:1941  request.approvals[msg.sender] */\n              0x00\n                /* \"Campaign.sol\":1930:1940  msg.sender */\n              caller\n                /* \"Campaign.sol\":1912:1941  request.approvals[msg.sender] */\n              0xffffffffffffffffffffffffffffffffffffffff\n              and\n              0xffffffffffffffffffffffffffffffffffffffff\n              and\n              dup2\n              mstore\n              0x20\n              add\n              swap1\n              dup2\n              mstore\n              0x20\n              add\n              0x00\n              keccak256\n              0x00\n                /* \"Campaign.sol\":1912:1948  request.approvals[msg.sender] = true */\n              0x0100\n              exp\n              dup2\n              sload\n              dup2\n              0xff\n              mul\n              not\n              and\n              swap1\n              dup4\n              iszero\n              iszero\n              mul\n              or\n              swap1\n              sstore\n              pop\n                /* \"Campaign.sol\":1958:1965  request */\n              dup1\n                /* \"Campaign.sol\":1958:1980  request.approvalsCount */\n              0x03\n              add\n              0x00\n                /* \"Campaign.sol\":1958:1982  request.approvalsCount++ */\n              dup2\n              sload\n              dup1\n              swap3\n              swap2\n              swap1\n              tag_89\n              swap1\n              tag_79\n              jump\t// in\n            tag_89:\n              swap2\n              swap1\n              pop\n              sstore\n              pop\n                /* \"Campaign.sol\":1759:1989  {... */\n              pop\n                /* \"Campaign.sol\":1715:1989  function approveRequest(uint _index) public {... */\n              pop\n              jump\t// out\n                /* \"#utility.yul\":7:82   */\n            tag_90:\n                /* \"#utility.yul\":40:46   */\n              0x00\n                /* \"#utility.yul\":73:75   */\n              0x40\n                /* \"#utility.yul\":67:76   */\n              mload\n                /* \"#utility.yul\":57:76   */\n              swap1\n              pop\n                /* \"#utility.yul\":7:82   */\n              swap1\n              jump\t// out\n                /* \"#utility.yul\":88:205   */\n            tag_91:\n                /* \"#utility.yul\":197:198   */\n              0x00\n                /* \"#utility.yul\":194:195   */\n              dup1\n                /* \"#utility.yul\":187:199   */\n              revert\n                /* \"#utility.yul\":211:328   */\n            tag_92:\n                /* \"#utility.yul\":320:321   */\n              0x00\n                /* \"#utility.yul\":317:318   */\n              dup1\n                /* \"#utility.yul\":310:322   */\n              revert\n                /* \"#utility.yul\":334:411   */\n            tag_93:\n                /* \"#utility.yul\":371:378   */\n              0x00\n                /* \"#utility.yul\":400:405   */\n              dup2\n                /* \"#utility.yul\":389:405   */\n              swap1\n              pop\n                /* \"#utility.yul\":334:411   */\n              swap2\n              swap1\n              pop\n              jump\t// out\n                /* \"#utility.yul\":417:539   */\n            tag_94:\n                /* \"#utility.yul\":490:514   */\n              tag_146\n                /* \"#utility.yul\":508:513   */\n              dup2\n                /* \"#utility.yul\":490:514   */\n              tag_93\n              jump\t// in\n            tag_146:\n                /* \"#utility.yul\":483:488   */\n              dup2\n                /* \"#utility.yul\":480:515   */\n              eq\n                /* \"#utility.yul\":470:533   */\n              tag_147\n              jumpi\n                /* \"#utility.yul\":529:530   */\n              0x00\n                /* \"#utility.yul\":526:527   */\n              dup1\n                /* \"#utility.yul\":519:531   */\n              revert\n                /* \"#utility.yul\":470:533   */\n            tag_147:\n                /* \"#utility.yul\":417:539   */\n              pop\n              jump\t// out\n                /* \"#utility.yul\":545:684   */\n            tag_95:\n                /* \"#utility.yul\":591:596   */\n              0x00\n                /* \"#utility.yul\":629:635   */\n              dup2\n                /* \"#utility.yul\":616:636   */\n              calldataload\n                /* \"#utility.yul\":607:636   */\n              swap1\n              pop\n                /* \"#utility.yul\":645:678   */\n              tag_149\n                /* \"#utility.yul\":672:677   */\n              dup2\n                /* \"#utility.yul\":645:678   */\n              tag_94\n              jump\t// in\n            tag_149:\n                /* \"#utility.yul\":545:684   */\n              swap3\n              swap2\n              pop\n              pop\n              jump\t// out\n                /* \"#utility.yul\":690:1019   */\n            tag_16:\n                /* \"#utility.yul\":749:755   */\n              0x00\n                /* \"#utility.yul\":798:800   */\n              0x20\n                /* \"#utility.yul\":786:795   */\n              dup3\n                /* \"#utility.yul\":777:784   */\n              dup5\n                /* \"#utility.yul\":773:796   */\n              sub\n                /* \"#utility.yul\":769:801   */\n              slt\n                /* \"#utility.yul\":766:885   */\n              iszero\n              tag_151\n              jumpi\n                /* \"#utility.yul\":804:883   */\n              tag_152\n              tag_91\n              jump\t// in\n            tag_152:\n                /* \"#utility.yul\":766:885   */\n            tag_151:\n                /* \"#utility.yul\":924:925   */\n              0x00\n                /* \"#utility.yul\":949:1002   */\n              tag_153\n                /* \"#utility.yul\":994:1001   */\n              dup5\n                /* \"#utility.yul\":985:991   */\n              dup3\n                /* \"#utility.yul\":974:983   */\n              dup6\n                /* \"#utility.yul\":970:992   */\n              add\n                /* \"#utility.yul\":949:1002   */\n              tag_95\n              jump\t// in\n            tag_153:\n                /* \"#utility.yul\":939:1002   */\n              swap2\n              pop\n                /* \"#utility.yul\":895:1012   */\n              pop\n                /* \"#utility.yul\":690:1019   */\n              swap3\n              swap2\n              pop\n              pop\n              jump\t// out\n                /* \"#utility.yul\":1025:1151   */\n            tag_96:\n                /* \"#utility.yul\":1062:1069   */\n              0x00\n                /* \"#utility.yul\":1102:1144   */\n              0xffffffffffffffffffffffffffffffffffffffff\n                /* \"#utility.yul\":1095:1100   */\n              dup3\n                /* \"#utility.yul\":1091:1145   */\n              and\n                /* \"#utility.yul\":1080:1145   */\n              swap1\n              pop\n                /* \"#utility.yul\":1025:1151   */\n              swap2\n              swap1\n              pop\n              jump\t// out\n                /* \"#utility.yul\":1157:1253   */\n            tag_97:\n                /* \"#utility.yul\":1194:1201   */\n              0x00\n                /* \"#utility.yul\":1223:1247   */\n              tag_156\n                /* \"#utility.yul\":1241:1246   */\n              dup3\n                /* \"#utility.yul\":1223:1247   */\n              tag_96\n              jump\t// in\n            tag_156:\n                /* \"#utility.yul\":1212:1247   */\n              swap1\n              pop\n                /* \"#utility.yul\":1157:1253   */\n              swap2\n              swap1\n              pop\n              jump\t// out\n                /* \"#utility.yul\":1259:1381   */\n            tag_98:\n                /* \"#utility.yul\":1332:1356   */\n              tag_158\n                /* \"#utility.yul\":1350:1355   */\n              dup2\n                /* \"#utility.yul\":1332:1356   */\n              tag_97\n              jump\t// in\n            tag_158:\n                /* \"#utility.yul\":1325:1330   */\n              dup2\n                /* \"#utility.yul\":1322:1357   */\n              eq\n                /* \"#utility.yul\":1312:1375   */\n              tag_159\n              jumpi\n                /* \"#utility.yul\":1371:1372   */\n              0x00\n                /* \"#utility.yul\":1368:1369   */\n              dup1\n                /* \"#utility.yul\":1361:1373   */\n              revert\n                /* \"#utility.yul\":1312:1375   */\n            tag_159:\n                /* \"#utility.yul\":1259:1381   */\n              pop\n              jump\t// out\n                /* \"#utility.yul\":1387:1526   */\n            tag_99:\n                /* \"#utility.yul\":1433:1438   */\n              0x00\n                /* \"#utility.yul\":1471:1477   */\n              dup2\n                /* \"#utility.yul\":1458:1478   */\n              calldataload\n                /* \"#utility.yul\":1449:1478   */\n              swap1\n              pop\n                /* \"#utility.yul\":1487:1520   */\n              tag_161\n                /* \"#utility.yul\":1514:1519   */\n              dup2\n                /* \"#utility.yul\":1487:1520   */\n              tag_98\n              jump\t// in\n            tag_161:\n                /* \"#utility.yul\":1387:1526   */\n              swap3\n              swap2\n              pop\n              pop\n              jump\t// out\n                /* \"#utility.yul\":1532:1861   */\n            tag_21:\n                /* \"#utility.yul\":1591:1597   */\n              0x00\n                /* \"#utility.yul\":1640:1642   */\n              0x20\n                /* \"#utility.yul\":1628:1637   */\n              dup3\n                /* \"#utility.yul\":1619:1626   */\n              dup5\n                /* \"#utility.yul\":1615:1638   */\n              sub\n                /* \"#utility.yul\":1611:1643   */\n              slt\n                /* \"#utility.yul\":1608:1727   */\n              iszero\n              tag_163\n              jumpi\n                /* \"#utility.yul\":1646:1725   */\n              tag_164\n              tag_91\n              jump\t// in\n            tag_164:\n                /* \"#utility.yul\":1608:1727   */\n            tag_163:\n                /* \"#utility.yul\":1766:1767   */\n              0x00\n                /* \"#utility.yul\":1791:1844   */\n              tag_165\n                /* \"#utility.yul\":1836:1843   */\n              dup5\n                /* \"#utility.yul\":1827:1833   */\n              dup3\n                /* \"#utility.yul\":1816:1825   */\n              dup6\n                /* \"#utility.yul\":1812:1834   */\n              add\n                /* \"#utility.yul\":1791:1844   */\n              tag_99\n              jump\t// in\n            tag_165:\n                /* \"#utility.yul\":1781:1844   */\n              swap2\n              pop\n                /* \"#utility.yul\":1737:1854   */\n              pop\n                /* \"#utility.yul\":1532:1861   */\n              swap3\n              swap2\n              pop\n              pop\n              jump\t// out\n                /* \"#utility.yul\":1867:1957   */\n            tag_100:\n                /* \"#utility.yul\":1901:1908   */\n              0x00\n                /* \"#utility.yul\":1944:1949   */\n              dup2\n                /* \"#utility.yul\":1937:1950   */\n              iszero\n                /* \"#utility.yul\":1930:1951   */\n              iszero\n                /* \"#utility.yul\":1919:1951   */\n              swap1\n              pop\n                /* \"#utility.yul\":1867:1957   */\n              swap2\n              swap1\n              pop\n              jump\t// out\n                /* \"#utility.yul\":1963:2072   */\n            tag_101:\n                /* \"#utility.yul\":2044:2065   */\n              tag_168\n                /* \"#utility.yul\":2059:2064   */\n              dup2\n                /* \"#utility.yul\":2044:2065   */\n              tag_100\n              jump\t// in\n            tag_168:\n                /* \"#utility.yul\":2039:2042   */\n              dup3\n                /* \"#utility.yul\":2032:2066   */\n              mstore\n                /* \"#utility.yul\":1963:2072   */\n              pop\n              pop\n              jump\t// out\n                /* \"#utility.yul\":2078:2288   */\n            tag_24:\n                /* \"#utility.yul\":2165:2169   */\n              0x00\n                /* \"#utility.yul\":2203:2205   */\n              0x20\n                /* \"#utility.yul\":2192:2201   */\n              dup3\n                /* \"#utility.yul\":2188:2206   */\n              add\n                /* \"#utility.yul\":2180:2206   */\n              swap1\n              pop\n                /* \"#utility.yul\":2216:2281   */\n              tag_170\n                /* \"#utility.yul\":2278:2279   */\n              0x00\n                /* \"#utility.yul\":2267:2276   */\n              dup4\n                /* \"#utility.yul\":2263:2280   */\n              add\n                /* \"#utility.yul\":2254:2260   */\n              dup5\n                /* \"#utility.yul\":2216:2281   */\n              tag_101\n              jump\t// in\n            tag_170:\n                /* \"#utility.yul\":2078:2288   */\n              swap3\n              swap2\n              pop\n              pop\n              jump\t// out\n                /* \"#utility.yul\":2294:2412   */\n            tag_102:\n                /* \"#utility.yul\":2381:2405   */\n              tag_172\n                /* \"#utility.yul\":2399:2404   */\n              dup2\n                /* \"#utility.yul\":2381:2405   */\n              tag_97\n              jump\t// in\n            tag_172:\n                /* \"#utility.yul\":2376:2379   */\n              dup3\n                /* \"#utility.yul\":2369:2406   */\n              mstore\n                /* \"#utility.yul\":2294:2412   */\n              pop\n              pop\n              jump\t// out\n                /* \"#utility.yul\":2418:2640   */\n            tag_29:\n                /* \"#utility.yul\":2511:2515   */\n              0x00\n                /* \"#utility.yul\":2549:2551   */\n              0x20\n                /* \"#utility.yul\":2538:2547   */\n              dup3\n                /* \"#utility.yul\":2534:2552   */\n              add\n                /* \"#utility.yul\":2526:2552   */\n              swap1\n              pop\n                /* \"#utility.yul\":2562:2633   */\n              tag_174\n                /* \"#utility.yul\":2630:2631   */\n              0x00\n                /* \"#utility.yul\":2619:2628   */\n              dup4\n                /* \"#utility.yul\":2615:2632   */\n              add\n                /* \"#utility.yul\":2606:2612   */\n              dup5\n                /* \"#utility.yul\":2562:2633   */\n              tag_102\n              jump\t// in\n            tag_174:\n                /* \"#utility.yul\":2418:2640   */\n              swap3\n              swap2\n              pop\n              pop\n              jump\t// out\n                /* \"#utility.yul\":2646:2745   */\n            tag_103:\n                /* \"#utility.yul\":2698:2704   */\n              0x00\n                /* \"#utility.yul\":2732:2737   */\n              dup2\n                /* \"#utility.yul\":2726:2738   */\n              mload\n                /* \"#utility.yul\":2716:2738   */\n              swap1\n              pop\n                /* \"#utility.yul\":2646:2745   */\n              swap2\n              swap1\n              pop\n              jump\t// out\n                /* \"#utility.yul\":2751:2920   */\n            tag_104:\n                /* \"#utility.yul\":2835:2846   */\n              0x00\n                /* \"#utility.yul\":2869:2875   */\n              dup3\n                /* \"#utility.yul\":2864:2867   */\n              dup3\n                /* \"#utility.yul\":2857:2876   */\n              mstore\n                /* \"#utility.yul\":2909:2913   */\n              0x20\n                /* \"#utility.yul\":2904:2907   */\n              dup3\n                /* \"#utility.yul\":2900:2914   */\n              add\n                /* \"#utility.yul\":2885:2914   */\n              swap1\n              pop\n                /* \"#utility.yul\":2751:2920   */\n              swap3\n              swap2\n              pop\n              pop\n              jump\t// out\n                /* \"#utility.yul\":2926:3172   */\n            tag_105:\n                /* \"#utility.yul\":3007:3008   */\n              0x00\n                /* \"#utility.yul\":3017:3130   */\n            tag_178:\n                /* \"#utility.yul\":3031:3037   */\n              dup4\n                /* \"#utility.yul\":3028:3029   */\n              dup2\n                /* \"#utility.yul\":3025:3038   */\n              lt\n                /* \"#utility.yul\":3017:3130   */\n              iszero\n              tag_180\n              jumpi\n                /* \"#utility.yul\":3116:3117   */\n              dup1\n                /* \"#utility.yul\":3111:3114   */\n              dup3\n                /* \"#utility.yul\":3107:3118   */\n              add\n                /* \"#utility.yul\":3101:3119   */\n              mload\n                /* \"#utility.yul\":3097:3098   */\n              dup2\n                /* \"#utility.yul\":3092:3095   */\n              dup5\n                /* \"#utility.yul\":3088:3099   */\n              add\n                /* \"#utility.yul\":3081:3120   */\n              mstore\n                /* \"#utility.yul\":3053:3055   */\n              0x20\n                /* \"#utility.yul\":3050:3051   */\n              dup2\n                /* \"#utility.yul\":3046:3056   */\n              add\n                /* \"#utility.yul\":3041:3056   */\n              swap1\n              pop\n                /* \"#utility.yul\":3017:3130   */\n              jump(tag_178)\n            tag_180:\n                /* \"#utility.yul\":3164:3165   */\n              0x00\n                /* \"#utility.yul\":3155:3161   */\n              dup5\n                /* \"#utility.yul\":3150:3153   */\n              dup5\n                /* \"#utility.yul\":3146:3162   */\n              add\n                /* \"#utility.yul\":3139:3166   */\n              mstore\n                /* \"#utility.yul\":2988:3172   */\n              pop\n                /* \"#utility.yul\":2926:3172   */\n              pop\n              pop\n              pop\n              jump\t// out\n                /* \"#utility.yul\":3178:3280   */\n            tag_106:\n                /* \"#utility.yul\":3219:3225   */\n              0x00\n                /* \"#utility.yul\":3270:3272   */\n              0x1f\n                /* \"#utility.yul\":3266:3273   */\n              not\n                /* \"#utility.yul\":3261:3263   */\n              0x1f\n                /* \"#utility.yul\":3254:3259   */\n              dup4\n                /* \"#utility.yul\":3250:3264   */\n              add\n                /* \"#utility.yul\":3246:3274   */\n              and\n                /* \"#utility.yul\":3236:3274   */\n              swap1\n              pop\n                /* \"#utility.yul\":3178:3280   */\n              swap2\n              swap1\n              pop\n              jump\t// out\n                /* \"#utility.yul\":3286:3663   */\n            tag_107:\n                /* \"#utility.yul\":3374:3377   */\n              0x00\n                /* \"#utility.yul\":3402:3441   */\n              tag_183\n                /* \"#utility.yul\":3435:3440   */\n              dup3\n                /* \"#utility.yul\":3402:3441   */\n              tag_103\n              jump\t// in\n            tag_183:\n                /* \"#utility.yul\":3457:3528   */\n              tag_184\n                /* \"#utility.yul\":3521:3527   */\n              dup2\n                /* \"#utility.yul\":3516:3519   */\n              dup6\n                /* \"#utility.yul\":3457:3528   */\n              tag_104\n              jump\t// in\n            tag_184:\n                /* \"#utility.yul\":3450:3528   */\n              swap4\n              pop\n                /* \"#utility.yul\":3537:3602   */\n              tag_185\n                /* \"#utility.yul\":3595:3601   */\n              dup2\n                /* \"#utility.yul\":3590:3593   */\n              dup6\n                /* \"#utility.yul\":3583:3587   */\n              0x20\n                /* \"#utility.yul\":3576:3581   */\n              dup7\n                /* \"#utility.yul\":3572:3588   */\n              add\n                /* \"#utility.yul\":3537:3602   */\n              tag_105\n              jump\t// in\n            tag_185:\n                /* \"#utility.yul\":3627:3656   */\n              tag_186\n                /* \"#utility.yul\":3649:3655   */\n              dup2\n                /* \"#utility.yul\":3627:3656   */\n              tag_106\n              jump\t// in\n            tag_186:\n                /* \"#utility.yul\":3622:3625   */\n              dup5\n                /* \"#utility.yul\":3618:3657   */\n              add\n                /* \"#utility.yul\":3611:3657   */\n              swap2\n              pop\n                /* \"#utility.yul\":3378:3663   */\n              pop\n                /* \"#utility.yul\":3286:3663   */\n              swap3\n              swap2\n              pop\n              pop\n              jump\t// out\n                /* \"#utility.yul\":3669:3787   */\n            tag_108:\n                /* \"#utility.yul\":3756:3780   */\n              tag_188\n                /* \"#utility.yul\":3774:3779   */\n              dup2\n                /* \"#utility.yul\":3756:3780   */\n              tag_93\n              jump\t// in\n            tag_188:\n                /* \"#utility.yul\":3751:3754   */\n              dup3\n                /* \"#utility.yul\":3744:3781   */\n              mstore\n                /* \"#utility.yul\":3669:3787   */\n              pop\n              pop\n              jump\t// out\n                /* \"#utility.yul\":3793:3897   */\n            tag_109:\n                /* \"#utility.yul\":3838:3845   */\n              0x00\n                /* \"#utility.yul\":3867:3891   */\n              tag_190\n                /* \"#utility.yul\":3885:3890   */\n              dup3\n                /* \"#utility.yul\":3867:3891   */\n              tag_96\n              jump\t// in\n            tag_190:\n                /* \"#utility.yul\":3856:3891   */\n              swap1\n              pop\n                /* \"#utility.yul\":3793:3897   */\n              swap2\n              swap1\n              pop\n              jump\t// out\n                /* \"#utility.yul\":3903:4045   */\n            tag_110:\n                /* \"#utility.yul\":4006:4038   */\n              tag_192\n                /* \"#utility.yul\":4032:4037   */\n              dup2\n                /* \"#utility.yul\":4006:4038   */\n              tag_109\n              jump\t// in\n            tag_192:\n                /* \"#utility.yul\":4001:4004   */\n              dup3\n                /* \"#utility.yul\":3994:4039   */\n              mstore\n                /* \"#utility.yul\":3903:4045   */\n              pop\n              pop\n              jump\t// out\n                /* \"#utility.yul\":4051:4826   */\n            tag_35:\n                /* \"#utility.yul\":4286:4290   */\n              0x00\n                /* \"#utility.yul\":4324:4327   */\n              0xa0\n                /* \"#utility.yul\":4313:4322   */\n              dup3\n                /* \"#utility.yul\":4309:4328   */\n              add\n                /* \"#utility.yul\":4301:4328   */\n              swap1\n              pop\n                /* \"#utility.yul\":4374:4383   */\n              dup2\n                /* \"#utility.yul\":4368:4372   */\n              dup2\n                /* \"#utility.yul\":4364:4384   */\n              sub\n                /* \"#utility.yul\":4360:4361   */\n              0x00\n                /* \"#utility.yul\":4349:4358   */\n              dup4\n                /* \"#utility.yul\":4345:4362   */\n              add\n                /* \"#utility.yul\":4338:4385   */\n              mstore\n                /* \"#utility.yul\":4402:4480   */\n              tag_194\n                /* \"#utility.yul\":4475:4479   */\n              dup2\n                /* \"#utility.yul\":4466:4472   */\n              dup9\n                /* \"#utility.yul\":4402:4480   */\n              tag_107\n              jump\t// in\n            tag_194:\n                /* \"#utility.yul\":4394:4480   */\n              swap1\n              pop\n                /* \"#utility.yul\":4490:4562   */\n              tag_195\n                /* \"#utility.yul\":4558:4560   */\n              0x20\n                /* \"#utility.yul\":4547:4556   */\n              dup4\n                /* \"#utility.yul\":4543:4561   */\n              add\n                /* \"#utility.yul\":4534:4540   */\n              dup8\n                /* \"#utility.yul\":4490:4562   */\n              tag_108\n              jump\t// in\n            tag_195:\n                /* \"#utility.yul\":4572:4660   */\n              tag_196\n                /* \"#utility.yul\":4656:4658   */\n              0x40\n                /* \"#utility.yul\":4645:4654   */\n              dup4\n                /* \"#utility.yul\":4641:4659   */\n              add\n                /* \"#utility.yul\":4632:4638   */\n              dup7\n                /* \"#utility.yul\":4572:4660   */\n              tag_110\n              jump\t// in\n            tag_196:\n                /* \"#utility.yul\":4670:4736   */\n              tag_197\n                /* \"#utility.yul\":4732:4734   */\n              0x60\n                /* \"#utility.yul\":4721:4730   */\n              dup4\n                /* \"#utility.yul\":4717:4735   */\n              add\n                /* \"#utility.yul\":4708:4714   */\n              dup6\n                /* \"#utility.yul\":4670:4736   */\n              tag_101\n              jump\t// in\n            tag_197:\n                /* \"#utility.yul\":4746:4819   */\n              tag_198\n                /* \"#utility.yul\":4814:4817   */\n              0x80\n                /* \"#utility.yul\":4803:4812   */\n              dup4\n                /* \"#utility.yul\":4799:4818   */\n              add\n                /* \"#utility.yul\":4790:4796   */\n              dup5\n                /* \"#utility.yul\":4746:4819   */\n              tag_108\n              jump\t// in\n            tag_198:\n                /* \"#utility.yul\":4051:4826   */\n              swap7\n              swap6\n              pop\n              pop\n              pop\n              pop\n              pop\n              pop\n              jump\t// out\n                /* \"#utility.yul\":4832:5054   */\n            tag_40:\n                /* \"#utility.yul\":4925:4929   */\n              0x00\n                /* \"#utility.yul\":4963:4965   */\n              0x20\n                /* \"#utility.yul\":4952:4961   */\n              dup3\n                /* \"#utility.yul\":4948:4966   */\n              add\n                /* \"#utility.yul\":4940:4966   */\n              swap1\n              pop\n                /* \"#utility.yul\":4976:5047   */\n              tag_200\n                /* \"#utility.yul\":5044:5045   */\n              0x00\n                /* \"#utility.yul\":5033:5042   */\n              dup4\n                /* \"#utility.yul\":5029:5046   */\n              add\n                /* \"#utility.yul\":5020:5026   */\n              dup5\n                /* \"#utility.yul\":4976:5047   */\n              tag_108\n              jump\t// in\n            tag_200:\n                /* \"#utility.yul\":4832:5054   */\n              swap3\n              swap2\n              pop\n              pop\n              jump\t// out\n                /* \"#utility.yul\":5060:5177   */\n            tag_111:\n                /* \"#utility.yul\":5169:5170   */\n              0x00\n                /* \"#utility.yul\":5166:5167   */\n              dup1\n                /* \"#utility.yul\":5159:5171   */\n              revert\n                /* \"#utility.yul\":5183:5300   */\n            tag_112:\n                /* \"#utility.yul\":5292:5293   */\n              0x00\n                /* \"#utility.yul\":5289:5290   */\n              dup1\n                /* \"#utility.yul\":5282:5294   */\n              revert\n                /* \"#utility.yul\":5306:5486   */\n            tag_113:\n                /* \"#utility.yul\":5354:5431   */\n              0x4e487b7100000000000000000000000000000000000000000000000000000000\n                /* \"#utility.yul\":5351:5352   */\n              0x00\n                /* \"#utility.yul\":5344:5432   */\n              mstore\n                /* \"#utility.yul\":5451:5455   */\n              0x41\n                /* \"#utility.yul\":5448:5449   */\n              0x04\n                /* \"#utility.yul\":5441:5456   */\n              mstore\n                /* \"#utility.yul\":5475:5479   */\n              0x24\n                /* \"#utility.yul\":5472:5473   */\n              0x00\n                /* \"#utility.yul\":5465:5480   */\n              revert\n                /* \"#utility.yul\":5492:5773   */\n            tag_114:\n                /* \"#utility.yul\":5575:5602   */\n              tag_205\n                /* \"#utility.yul\":5597:5601   */\n              dup3\n                /* \"#utility.yul\":5575:5602   */\n              tag_106\n              jump\t// in\n            tag_205:\n                /* \"#utility.yul\":5567:5573   */\n              dup2\n                /* \"#utility.yul\":5563:5603   */\n              add\n                /* \"#utility.yul\":5705:5711   */\n              dup2\n                /* \"#utility.yul\":5693:5703   */\n              dup2\n                /* \"#utility.yul\":5690:5712   */\n              lt\n                /* \"#utility.yul\":5669:5687   */\n              0xffffffffffffffff\n                /* \"#utility.yul\":5657:5667   */\n              dup3\n                /* \"#utility.yul\":5654:5688   */\n              gt\n                /* \"#utility.yul\":5651:5713   */\n              or\n                /* \"#utility.yul\":5648:5736   */\n              iszero\n              tag_206\n              jumpi\n                /* \"#utility.yul\":5716:5734   */\n              tag_207\n              tag_113\n              jump\t// in\n            tag_207:\n                /* \"#utility.yul\":5648:5736   */\n            tag_206:\n                /* \"#utility.yul\":5756:5766   */\n              dup1\n                /* \"#utility.yul\":5752:5754   */\n              0x40\n                /* \"#utility.yul\":5745:5767   */\n              mstore\n                /* \"#utility.yul\":5535:5773   */\n              pop\n                /* \"#utility.yul\":5492:5773   */\n              pop\n              pop\n              jump\t// out\n                /* \"#utility.yul\":5779:5908   */\n            tag_115:\n                /* \"#utility.yul\":5813:5819   */\n              0x00\n                /* \"#utility.yul\":5840:5860   */\n              tag_209\n              tag_90\n              jump\t// in\n            tag_209:\n                /* \"#utility.yul\":5830:5860   */\n              swap1\n              pop\n                /* \"#utility.yul\":5869:5902   */\n              tag_210\n                /* \"#utility.yul\":5897:5901   */\n              dup3\n                /* \"#utility.yul\":5889:5895   */\n              dup3\n                /* \"#utility.yul\":5869:5902   */\n              tag_114\n              jump\t// in\n            tag_210:\n                /* \"#utility.yul\":5779:5908   */\n              swap2\n              swap1\n              pop\n              jump\t// out\n                /* \"#utility.yul\":5914:6222   */\n            tag_116:\n                /* \"#utility.yul\":5976:5980   */\n              0x00\n                /* \"#utility.yul\":6066:6084   */\n              0xffffffffffffffff\n                /* \"#utility.yul\":6058:6064   */\n              dup3\n                /* \"#utility.yul\":6055:6085   */\n              gt\n                /* \"#utility.yul\":6052:6108   */\n              iszero\n              tag_212\n              jumpi\n                /* \"#utility.yul\":6088:6106   */\n              tag_213\n              tag_113\n              jump\t// in\n            tag_213:\n                /* \"#utility.yul\":6052:6108   */\n            tag_212:\n                /* \"#utility.yul\":6126:6155   */\n              tag_214\n                /* \"#utility.yul\":6148:6154   */\n              dup3\n                /* \"#utility.yul\":6126:6155   */\n              tag_106\n              jump\t// in\n            tag_214:\n                /* \"#utility.yul\":6118:6155   */\n              swap1\n              pop\n                /* \"#utility.yul\":6210:6214   */\n              0x20\n                /* \"#utility.yul\":6204:6208   */\n              dup2\n                /* \"#utility.yul\":6200:6215   */\n              add\n                /* \"#utility.yul\":6192:6215   */\n              swap1\n              pop\n                /* \"#utility.yul\":5914:6222   */\n              swap2\n              swap1\n              pop\n              jump\t// out\n                /* \"#utility.yul\":6228:6374   */\n            tag_117:\n                /* \"#utility.yul\":6325:6331   */\n              dup3\n                /* \"#utility.yul\":6320:6323   */\n              dup2\n                /* \"#utility.yul\":6315:6318   */\n              dup4\n                /* \"#utility.yul\":6302:6332   */\n              calldatacopy\n                /* \"#utility.yul\":6366:6367   */\n              0x00\n                /* \"#utility.yul\":6357:6363   */\n              dup4\n                /* \"#utility.yul\":6352:6355   */\n              dup4\n                /* \"#utility.yul\":6348:6364   */\n              add\n                /* \"#utility.yul\":6341:6368   */\n              mstore\n                /* \"#utility.yul\":6228:6374   */\n              pop\n              pop\n              pop\n              jump\t// out\n                /* \"#utility.yul\":6380:6805   */\n            tag_118:\n                /* \"#utility.yul\":6458:6463   */\n              0x00\n                /* \"#utility.yul\":6483:6549   */\n              tag_217\n                /* \"#utility.yul\":6499:6548   */\n              tag_218\n                /* \"#utility.yul\":6541:6547   */\n              dup5\n                /* \"#utility.yul\":6499:6548   */\n              tag_116\n              jump\t// in\n            tag_218:\n                /* \"#utility.yul\":6483:6549   */\n              tag_115\n              jump\t// in\n            tag_217:\n                /* \"#utility.yul\":6474:6549   */\n              swap1\n              pop\n                /* \"#utility.yul\":6572:6578   */\n              dup3\n                /* \"#utility.yul\":6565:6570   */\n              dup2\n                /* \"#utility.yul\":6558:6579   */\n              mstore\n                /* \"#utility.yul\":6610:6614   */\n              0x20\n                /* \"#utility.yul\":6603:6608   */\n              dup2\n                /* \"#utility.yul\":6599:6615   */\n              add\n                /* \"#utility.yul\":6648:6651   */\n              dup5\n                /* \"#utility.yul\":6639:6645   */\n              dup5\n                /* \"#utility.yul\":6634:6637   */\n              dup5\n                /* \"#utility.yul\":6630:6646   */\n              add\n                /* \"#utility.yul\":6627:6652   */\n              gt\n                /* \"#utility.yul\":6624:6736   */\n              iszero\n              tag_219\n              jumpi\n                /* \"#utility.yul\":6655:6734   */\n              tag_220\n              tag_112\n              jump\t// in\n            tag_220:\n                /* \"#utility.yul\":6624:6736   */\n            tag_219:\n                /* \"#utility.yul\":6745:6799   */\n              tag_221\n                /* \"#utility.yul\":6792:6798   */\n              dup5\n                /* \"#utility.yul\":6787:6790   */\n              dup3\n                /* \"#utility.yul\":6782:6785   */\n              dup6\n                /* \"#utility.yul\":6745:6799   */\n              tag_117\n              jump\t// in\n            tag_221:\n                /* \"#utility.yul\":6464:6805   */\n              pop\n                /* \"#utility.yul\":6380:6805   */\n              swap4\n              swap3\n              pop\n              pop\n              pop\n              jump\t// out\n                /* \"#utility.yul\":6825:7165   */\n            tag_119:\n                /* \"#utility.yul\":6881:6886   */\n              0x00\n                /* \"#utility.yul\":6930:6933   */\n              dup3\n                /* \"#utility.yul\":6923:6927   */\n              0x1f\n                /* \"#utility.yul\":6915:6921   */\n              dup4\n                /* \"#utility.yul\":6911:6928   */\n              add\n                /* \"#utility.yul\":6907:6934   */\n              slt\n                /* \"#utility.yul\":6897:7019   */\n              tag_223\n              jumpi\n                /* \"#utility.yul\":6938:7017   */\n              tag_224\n              tag_111\n              jump\t// in\n            tag_224:\n                /* \"#utility.yul\":6897:7019   */\n            tag_223:\n                /* \"#utility.yul\":7055:7061   */\n              dup2\n                /* \"#utility.yul\":7042:7062   */\n              calldataload\n                /* \"#utility.yul\":7080:7159   */\n              tag_225\n                /* \"#utility.yul\":7155:7158   */\n              dup5\n                /* \"#utility.yul\":7147:7153   */\n              dup3\n                /* \"#utility.yul\":7140:7144   */\n              0x20\n                /* \"#utility.yul\":7132:7138   */\n              dup7\n                /* \"#utility.yul\":7128:7145   */\n              add\n                /* \"#utility.yul\":7080:7159   */\n              tag_118\n              jump\t// in\n            tag_225:\n                /* \"#utility.yul\":7071:7159   */\n              swap2\n              pop\n                /* \"#utility.yul\":6887:7165   */\n              pop\n                /* \"#utility.yul\":6825:7165   */\n              swap3\n              swap2\n              pop\n              pop\n              jump\t// out\n                /* \"#utility.yul\":7171:7309   */\n            tag_120:\n                /* \"#utility.yul\":7252:7284   */\n              tag_227\n                /* \"#utility.yul\":7278:7283   */\n              dup2\n                /* \"#utility.yul\":7252:7284   */\n              tag_109\n              jump\t// in\n            tag_227:\n                /* \"#utility.yul\":7245:7250   */\n              dup2\n                /* \"#utility.yul\":7242:7285   */\n              eq\n                /* \"#utility.yul\":7232:7303   */\n              tag_228\n              jumpi\n                /* \"#utility.yul\":7299:7300   */\n              0x00\n                /* \"#utility.yul\":7296:7297   */\n              dup1\n                /* \"#utility.yul\":7289:7301   */\n              revert\n                /* \"#utility.yul\":7232:7303   */\n            tag_228:\n                /* \"#utility.yul\":7171:7309   */\n              pop\n              jump\t// out\n                /* \"#utility.yul\":7315:7470   */\n            tag_121:\n                /* \"#utility.yul\":7369:7374   */\n              0x00\n                /* \"#utility.yul\":7407:7413   */\n              dup2\n                /* \"#utility.yul\":7394:7414   */\n              calldataload\n                /* \"#utility.yul\":7385:7414   */\n              swap1\n              pop\n                /* \"#utility.yul\":7423:7464   */\n              tag_230\n                /* \"#utility.yul\":7458:7463   */\n              dup2\n                /* \"#utility.yul\":7423:7464   */\n              tag_120\n              jump\t// in\n            tag_230:\n                /* \"#utility.yul\":7315:7470   */\n              swap3\n              swap2\n              pop\n              pop\n              jump\t// out\n                /* \"#utility.yul\":7476:8291   */\n            tag_44:\n                /* \"#utility.yul\":7571:7577   */\n              0x00\n                /* \"#utility.yul\":7579:7585   */\n              dup1\n                /* \"#utility.yul\":7587:7593   */\n              0x00\n                /* \"#utility.yul\":7636:7638   */\n              0x60\n                /* \"#utility.yul\":7624:7633   */\n              dup5\n                /* \"#utility.yul\":7615:7622   */\n              dup7\n                /* \"#utility.yul\":7611:7634   */\n              sub\n                /* \"#utility.yul\":7607:7639   */\n              slt\n                /* \"#utility.yul\":7604:7723   */\n              iszero\n              tag_232\n              jumpi\n                /* \"#utility.yul\":7642:7721   */\n              tag_233\n              tag_91\n              jump\t// in\n            tag_233:\n                /* \"#utility.yul\":7604:7723   */\n            tag_232:\n                /* \"#utility.yul\":7790:7791   */\n              0x00\n                /* \"#utility.yul\":7779:7788   */\n              dup5\n                /* \"#utility.yul\":7775:7792   */\n              add\n                /* \"#utility.yul\":7762:7793   */\n              calldataload\n                /* \"#utility.yul\":7820:7838   */\n              0xffffffffffffffff\n                /* \"#utility.yul\":7812:7818   */\n              dup2\n                /* \"#utility.yul\":7809:7839   */\n              gt\n                /* \"#utility.yul\":7806:7923   */\n              iszero\n              tag_234\n              jumpi\n                /* \"#utility.yul\":7842:7921   */\n              tag_235\n              tag_92\n              jump\t// in\n            tag_235:\n                /* \"#utility.yul\":7806:7923   */\n            tag_234:\n                /* \"#utility.yul\":7947:8010   */\n              tag_236\n                /* \"#utility.yul\":8002:8009   */\n              dup7\n                /* \"#utility.yul\":7993:7999   */\n              dup3\n                /* \"#utility.yul\":7982:7991   */\n              dup8\n                /* \"#utility.yul\":7978:8000   */\n              add\n                /* \"#utility.yul\":7947:8010   */\n              tag_119\n              jump\t// in\n            tag_236:\n                /* \"#utility.yul\":7937:8010   */\n              swap4\n              pop\n                /* \"#utility.yul\":7733:8020   */\n              pop\n                /* \"#utility.yul\":8059:8061   */\n              0x20\n                /* \"#utility.yul\":8085:8138   */\n              tag_237\n                /* \"#utility.yul\":8130:8137   */\n              dup7\n                /* \"#utility.yul\":8121:8127   */\n              dup3\n                /* \"#utility.yul\":8110:8119   */\n              dup8\n                /* \"#utility.yul\":8106:8128   */\n              add\n                /* \"#utility.yul\":8085:8138   */\n              tag_95\n              jump\t// in\n            tag_237:\n                /* \"#utility.yul\":8075:8138   */\n              swap3\n              pop\n                /* \"#utility.yul\":8030:8148   */\n              pop\n                /* \"#utility.yul\":8187:8189   */\n              0x40\n                /* \"#utility.yul\":8213:8274   */\n              tag_238\n                /* \"#utility.yul\":8266:8273   */\n              dup7\n                /* \"#utility.yul\":8257:8263   */\n              dup3\n                /* \"#utility.yul\":8246:8255   */\n              dup8\n                /* \"#utility.yul\":8242:8264   */\n              add\n                /* \"#utility.yul\":8213:8274   */\n              tag_121\n              jump\t// in\n            tag_238:\n                /* \"#utility.yul\":8203:8274   */\n              swap2\n              pop\n                /* \"#utility.yul\":8158:8284   */\n              pop\n                /* \"#utility.yul\":7476:8291   */\n              swap3\n              pop\n              swap3\n              pop\n              swap3\n              jump\t// out\n                /* \"#utility.yul\":8297:8477   */\n            tag_122:\n                /* \"#utility.yul\":8345:8422   */\n              0x4e487b7100000000000000000000000000000000000000000000000000000000\n                /* \"#utility.yul\":8342:8343   */\n              0x00\n                /* \"#utility.yul\":8335:8423   */\n              mstore\n                /* \"#utility.yul\":8442:8446   */\n              0x12\n                /* \"#utility.yul\":8439:8440   */\n              0x04\n                /* \"#utility.yul\":8432:8447   */\n              mstore\n                /* \"#utility.yul\":8466:8470   */\n              0x24\n                /* \"#utility.yul\":8463:8464   */\n              0x00\n                /* \"#utility.yul\":8456:8471   */\n              revert\n                /* \"#utility.yul\":8483:8663   */\n            tag_123:\n                /* \"#utility.yul\":8531:8608   */\n              0x4e487b7100000000000000000000000000000000000000000000000000000000\n                /* \"#utility.yul\":8528:8529   */\n              0x00\n                /* \"#utility.yul\":8521:8609   */\n              mstore\n                /* \"#utility.yul\":8628:8632   */\n              0x11\n                /* \"#utility.yul\":8625:8626   */\n              0x04\n                /* \"#utility.yul\":8618:8633   */\n              mstore\n                /* \"#utility.yul\":8652:8656   */\n              0x24\n                /* \"#utility.yul\":8649:8650   */\n              0x00\n                /* \"#utility.yul\":8642:8657   */\n              revert\n                /* \"#utility.yul\":8669:8854   */\n            tag_64:\n                /* \"#utility.yul\":8709:8710   */\n              0x00\n                /* \"#utility.yul\":8726:8746   */\n              tag_242\n                /* \"#utility.yul\":8744:8745   */\n              dup3\n                /* \"#utility.yul\":8726:8746   */\n              tag_93\n              jump\t// in\n            tag_242:\n                /* \"#utility.yul\":8721:8746   */\n              swap2\n              pop\n                /* \"#utility.yul\":8760:8780   */\n              tag_243\n                /* \"#utility.yul\":8778:8779   */\n              dup4\n                /* \"#utility.yul\":8760:8780   */\n              tag_93\n              jump\t// in\n            tag_243:\n                /* \"#utility.yul\":8755:8780   */\n              swap3\n              pop\n                /* \"#utility.yul\":8799:8800   */\n              dup3\n                /* \"#utility.yul\":8789:8824   */\n              tag_244\n              jumpi\n                /* \"#utility.yul\":8804:8822   */\n              tag_245\n              tag_122\n              jump\t// in\n            tag_245:\n                /* \"#utility.yul\":8789:8824   */\n            tag_244:\n                /* \"#utility.yul\":8846:8847   */\n              dup3\n                /* \"#utility.yul\":8843:8844   */\n              dup3\n                /* \"#utility.yul\":8839:8848   */\n              div\n                /* \"#utility.yul\":8834:8848   */\n              swap1\n              pop\n                /* \"#utility.yul\":8669:8854   */\n              swap3\n              swap2\n              pop\n              pop\n              jump\t// out\n                /* \"#utility.yul\":8860:9040   */\n            tag_124:\n                /* \"#utility.yul\":8908:8985   */\n              0x4e487b7100000000000000000000000000000000000000000000000000000000\n                /* \"#utility.yul\":8905:8906   */\n              0x00\n                /* \"#utility.yul\":8898:8986   */\n              mstore\n                /* \"#utility.yul\":9005:9009   */\n              0x22\n                /* \"#utility.yul\":9002:9003   */\n              0x04\n                /* \"#utility.yul\":8995:9010   */\n              mstore\n                /* \"#utility.yul\":9029:9033   */\n              0x24\n                /* \"#utility.yul\":9026:9027   */\n              0x00\n                /* \"#utility.yul\":9019:9034   */\n              revert\n                /* \"#utility.yul\":9046:9366   */\n            tag_70:\n                /* \"#utility.yul\":9090:9096   */\n              0x00\n                /* \"#utility.yul\":9127:9128   */\n              0x02\n                /* \"#utility.yul\":9121:9125   */\n              dup3\n                /* \"#utility.yul\":9117:9129   */\n              div\n                /* \"#utility.yul\":9107:9129   */\n              swap1\n              pop\n                /* \"#utility.yul\":9174:9175   */\n              0x01\n                /* \"#utility.yul\":9168:9172   */\n              dup3\n                /* \"#utility.yul\":9164:9176   */\n              and\n                /* \"#utility.yul\":9195:9213   */\n              dup1\n                /* \"#utility.yul\":9185:9266   */\n              tag_248\n              jumpi\n                /* \"#utility.yul\":9251:9255   */\n              0x7f\n                /* \"#utility.yul\":9243:9249   */\n              dup3\n                /* \"#utility.yul\":9239:9256   */\n              and\n                /* \"#utility.yul\":9229:9256   */\n              swap2\n              pop\n                /* \"#utility.yul\":9185:9266   */\n            tag_248:\n                /* \"#utility.yul\":9313:9315   */\n              0x20\n                /* \"#utility.yul\":9305:9311   */\n              dup3\n                /* \"#utility.yul\":9302:9316   */\n              lt\n                /* \"#utility.yul\":9282:9300   */\n              dup2\n                /* \"#utility.yul\":9279:9317   */\n              sub\n                /* \"#utility.yul\":9276:9360   */\n              tag_249\n              jumpi\n                /* \"#utility.yul\":9332:9350   */\n              tag_250\n              tag_124\n              jump\t// in\n            tag_250:\n                /* \"#utility.yul\":9276:9360   */\n            tag_249:\n                /* \"#utility.yul\":9097:9366   */\n              pop\n                /* \"#utility.yul\":9046:9366   */\n              swap2\n              swap1\n              pop\n              jump\t// out\n                /* \"#utility.yul\":9372:9605   */\n            tag_79:\n                /* \"#utility.yul\":9411:9414   */\n              0x00\n                /* \"#utility.yul\":9434:9458   */\n              tag_252\n                /* \"#utility.yul\":9452:9457   */\n              dup3\n                /* \"#utility.yul\":9434:9458   */\n              tag_93\n              jump\t// in\n            tag_252:\n                /* \"#utility.yul\":9425:9458   */\n              swap2\n              pop\n                /* \"#utility.yul\":9480:9546   */\n              0xffffffffffffffffffffffffffffffffffffffffffffffffffffffffffffffff\n                /* \"#utility.yul\":9473:9478   */\n              dup3\n                /* \"#utility.yul\":9470:9547   */\n              sub\n                /* \"#utility.yul\":9467:9570   */\n              tag_253\n              jumpi\n                /* \"#utility.yul\":9550:9568   */\n              tag_254\n              tag_123\n              jump\t// in\n            tag_254:\n                /* \"#utility.yul\":9467:9570   */\n            tag_253:\n                /* \"#utility.yul\":9597:9598   */\n              0x01\n                /* \"#utility.yul\":9590:9595   */\n              dup3\n                /* \"#utility.yul\":9586:9599   */\n              add\n                /* \"#utility.yul\":9579:9599   */\n              swap1\n              pop\n                /* \"#utility.yul\":9372:9605   */\n              swap2\n              swap1\n              pop\n              jump\t// out\n                /* \"#utility.yul\":9611:9752   */\n            tag_125:\n                /* \"#utility.yul\":9660:9664   */\n              0x00\n                /* \"#utility.yul\":9683:9686   */\n              dup2\n                /* \"#utility.yul\":9675:9686   */\n              swap1\n              pop\n                /* \"#utility.yul\":9706:9709   */\n              dup2\n                /* \"#utility.yul\":9703:9704   */\n              0x00\n                /* \"#utility.yul\":9696:9710   */\n              mstore\n                /* \"#utility.yul\":9740:9744   */\n              0x20\n                /* \"#utility.yul\":9737:9738   */\n              0x00\n                /* \"#utility.yul\":9727:9745   */\n              keccak256\n                /* \"#utility.yul\":9719:9745   */\n              swap1\n              pop\n                /* \"#utility.yul\":9611:9752   */\n              swap2\n              swap1\n              pop\n              jump\t// out\n                /* \"#utility.yul\":9758:9851   */\n            tag_126:\n                /* \"#utility.yul\":9795:9801   */\n              0x00\n                /* \"#utility.yul\":9842:9844   */\n              0x20\n                /* \"#utility.yul\":9837:9839   */\n              0x1f\n                /* \"#utility.yul\":9830:9835   */\n              dup4\n                /* \"#utility.yul\":9826:9840   */\n              add\n                /* \"#utility.yul\":9822:9845   */\n              div\n                /* \"#utility.yul\":9812:9845   */\n              swap1\n              pop\n                /* \"#utility.yul\":9758:9851   */\n              swap2\n              swap1\n              pop\n              jump\t// out\n                /* \"#utility.yul\":9857:9964   */\n            tag_127:\n                /* \"#utility.yul\":9901:9909   */\n              0x00\n                /* \"#utility.yul\":9951:9956   */\n              dup3\n                /* \"#utility.yul\":9945:9949   */\n              dup3\n                /* \"#utility.yul\":9941:9957   */\n              shl\n                /* \"#utility.yul\":9920:9957   */\n              swap1\n              pop\n                /* \"#utility.yul\":9857:9964   */\n              swap3\n              swap2\n              pop\n              pop\n              jump\t// out\n                /* \"#utility.yul\":9970:10363   */\n            tag_128:\n                /* \"#utility.yul\":10039:10045   */\n              0x00\n                /* \"#utility.yul\":10089:10090   */\n              0x08\n                /* \"#utility.yul\":10077:10087   */\n              dup4\n                /* \"#utility.yul\":10073:10091   */\n              mul\n                /* \"#utility.yul\":10112:10209   */\n              tag_259\n                /* \"#utility.yul\":10142:10208   */\n              0xffffffffffffffffffffffffffffffffffffffffffffffffffffffffffffffff\n                /* \"#utility.yul\":10131:10140   */\n              dup3\n                /* \"#utility.yul\":10112:10209   */\n              tag_127\n              jump\t// in\n            tag_259:\n                /* \"#utility.yul\":10230:10269   */\n              tag_260\n                /* \"#utility.yul\":10260:10268   */\n              dup7\n                /* \"#utility.yul\":10249:10258   */\n              dup4\n                /* \"#utility.yul\":10230:10269   */\n              tag_127\n              jump\t// in\n            tag_260:\n                /* \"#utility.yul\":10218:10269   */\n              swap6\n              pop\n                /* \"#utility.yul\":10302:10306   */\n              dup1\n                /* \"#utility.yul\":10298:10307   */\n              not\n                /* \"#utility.yul\":10291:10296   */\n              dup5\n                /* \"#utility.yul\":10287:10308   */\n              and\n                /* \"#utility.yul\":10278:10308   */\n              swap4\n              pop\n                /* \"#utility.yul\":10351:10355   */\n              dup1\n                /* \"#utility.yul\":10341:10349   */\n              dup7\n                /* \"#utility.yul\":10337:10356   */\n              and\n                /* \"#utility.yul\":10330:10335   */\n              dup5\n                /* \"#utility.yul\":10327:10357   */\n              or\n                /* \"#utility.yul\":10317:10357   */\n              swap3\n              pop\n                /* \"#utility.yul\":10046:10363   */\n              pop\n              pop\n                /* \"#utility.yul\":9970:10363   */\n              swap4\n              swap3\n              pop\n              pop\n              pop\n              jump\t// out\n                /* \"#utility.yul\":10369:10429   */\n            tag_129:\n                /* \"#utility.yul\":10397:10400   */\n              0x00\n                /* \"#utility.yul\":10418:10423   */\n              dup2\n                /* \"#utility.yul\":10411:10423   */\n              swap1\n              pop\n                /* \"#utility.yul\":10369:10429   */\n              swap2\n              swap1\n              pop\n              jump\t// out\n                /* \"#utility.yul\":10435:10577   */\n            tag_130:\n                /* \"#utility.yul\":10485:10494   */\n              0x00\n                /* \"#utility.yul\":10518:10571   */\n              tag_263\n                /* \"#utility.yul\":10536:10570   */\n              tag_264\n                /* \"#utility.yul\":10545:10569   */\n              tag_265\n                /* \"#utility.yul\":10563:10568   */\n              dup5\n                /* \"#utility.yul\":10545:10569   */\n              tag_93\n              jump\t// in\n            tag_265:\n                /* \"#utility.yul\":10536:10570   */\n              tag_129\n              jump\t// in\n            tag_264:\n                /* \"#utility.yul\":10518:10571   */\n              tag_93\n              jump\t// in\n            tag_263:\n                /* \"#utility.yul\":10505:10571   */\n              swap1\n              pop\n                /* \"#utility.yul\":10435:10577   */\n              swap2\n              swap1\n              pop\n              jump\t// out\n                /* \"#utility.yul\":10583:10658   */\n            tag_131:\n                /* \"#utility.yul\":10626:10629   */\n              0x00\n                /* \"#utility.yul\":10647:10652   */\n              dup2\n                /* \"#utility.yul\":10640:10652   */\n              swap1\n              pop\n                /* \"#utility.yul\":10583:10658   */\n              swap2\n              swap1\n              pop\n              jump\t// out\n                /* \"#utility.yul\":10664:10933   */\n            tag_132:\n                /* \"#utility.yul\":10774:10813   */\n              tag_268\n                /* \"#utility.yul\":10805:10812   */\n              dup4\n                /* \"#utility.yul\":10774:10813   */\n              tag_130\n              jump\t// in\n            tag_268:\n                /* \"#utility.yul\":10835:10926   */\n              tag_269\n                /* \"#utility.yul\":10884:10925   */\n              tag_270\n                /* \"#utility.yul\":10908:10924   */\n              dup3\n                /* \"#utility.yul\":10884:10925   */\n              tag_131\n              jump\t// in\n            tag_270:\n                /* \"#utility.yul\":10876:10882   */\n              dup5\n                /* \"#utility.yul\":10869:10873   */\n              dup5\n                /* \"#utility.yul\":10863:10874   */\n              sload\n                /* \"#utility.yul\":10835:10926   */\n              tag_128\n              jump\t// in\n            tag_269:\n                /* \"#utility.yul\":10829:10833   */\n              dup3\n                /* \"#utility.yul\":10822:10927   */\n              sstore\n                /* \"#utility.yul\":10740:10933   */\n              pop\n                /* \"#utility.yul\":10664:10933   */\n              pop\n              pop\n              pop\n              jump\t// out\n                /* \"#utility.yul\":10939:11012   */\n            tag_133:\n                /* \"#utility.yul\":10984:10987   */\n              0x00\n                /* \"#utility.yul\":10939:11012   */\n              swap1\n              jump\t// out\n                /* \"#utility.yul\":11018:11207   */\n            tag_134:\n                /* \"#utility.yul\":11095:11127   */\n              tag_273\n              tag_133\n              jump\t// in\n            tag_273:\n                /* \"#utility.yul\":11136:11201   */\n              tag_274\n                /* \"#utility.yul\":11194:11200   */\n              dup2\n                /* \"#utility.yul\":11186:11192   */\n              dup5\n                /* \"#utility.yul\":11180:11184   */\n              dup5\n                /* \"#utility.yul\":11136:11201   */\n              tag_132\n              jump\t// in\n            tag_274:\n                /* \"#utility.yul\":11071:11207   */\n              pop\n                /* \"#utility.yul\":11018:11207   */\n              pop\n              pop\n              jump\t// out\n                /* \"#utility.yul\":11213:11399   */\n            tag_135:\n                /* \"#utility.yul\":11273:11393   */\n            tag_276:\n                /* \"#utility.yul\":11290:11293   */\n              dup2\n                /* \"#utility.yul\":11283:11288   */\n              dup2\n                /* \"#utility.yul\":11280:11294   */\n              lt\n                /* \"#utility.yul\":11273:11393   */\n              iszero\n              tag_278\n              jumpi\n                /* \"#utility.yul\":11344:11383   */\n              tag_279\n                /* \"#utility.yul\":11381:11382   */\n              0x00\n                /* \"#utility.yul\":11374:11379   */\n              dup3\n                /* \"#utility.yul\":11344:11383   */\n              tag_134\n              jump\t// in\n            tag_279:\n                /* \"#utility.yul\":11317:11318   */\n              0x01\n                /* \"#utility.yul\":11310:11315   */\n              dup2\n                /* \"#utility.yul\":11306:11319   */\n              add\n                /* \"#utility.yul\":11297:11319   */\n              swap1\n              pop\n                /* \"#utility.yul\":11273:11393   */\n              jump(tag_276)\n            tag_278:\n                /* \"#utility.yul\":11213:11399   */\n              pop\n              pop\n              jump\t// out\n                /* \"#utility.yul\":11405:11948   */\n            tag_136:\n                /* \"#utility.yul\":11506:11508   */\n              0x1f\n                /* \"#utility.yul\":11501:11504   */\n              dup3\n                /* \"#utility.yul\":11498:11509   */\n              gt\n                /* \"#utility.yul\":11495:11941   */\n              iszero\n              tag_281\n              jumpi\n                /* \"#utility.yul\":11540:11578   */\n              tag_282\n                /* \"#utility.yul\":11572:11577   */\n              dup2\n                /* \"#utility.yul\":11540:11578   */\n              tag_125\n              jump\t// in\n            tag_282:\n                /* \"#utility.yul\":11624:11653   */\n              tag_283\n                /* \"#utility.yul\":11642:11652   */\n              dup5\n                /* \"#utility.yul\":11624:11653   */\n              tag_126\n              jump\t// in\n            tag_283:\n                /* \"#utility.yul\":11614:11622   */\n              dup2\n                /* \"#utility.yul\":11610:11654   */\n              add\n                /* \"#utility.yul\":11807:11809   */\n              0x20\n                /* \"#utility.yul\":11795:11805   */\n              dup6\n                /* \"#utility.yul\":11792:11810   */\n              lt\n                /* \"#utility.yul\":11789:11838   */\n              iszero\n              tag_284\n              jumpi\n                /* \"#utility.yul\":11828:11836   */\n              dup2\n                /* \"#utility.yul\":11813:11836   */\n              swap1\n              pop\n                /* \"#utility.yul\":11789:11838   */\n            tag_284:\n                /* \"#utility.yul\":11851:11931   */\n              tag_285\n                /* \"#utility.yul\":11907:11929   */\n              tag_286\n                /* \"#utility.yul\":11925:11928   */\n              dup6\n                /* \"#utility.yul\":11907:11929   */\n              tag_126\n              jump\t// in\n            tag_286:\n                /* \"#utility.yul\":11897:11905   */\n              dup4\n                /* \"#utility.yul\":11893:11930   */\n              add\n                /* \"#utility.yul\":11880:11891   */\n              dup3\n                /* \"#utility.yul\":11851:11931   */\n              tag_135\n              jump\t// in\n            tag_285:\n                /* \"#utility.yul\":11510:11941   */\n              pop\n              pop\n                /* \"#utility.yul\":11495:11941   */\n            tag_281:\n                /* \"#utility.yul\":11405:11948   */\n              pop\n              pop\n              pop\n              jump\t// out\n                /* \"#utility.yul\":11954:12071   */\n            tag_137:\n                /* \"#utility.yul\":12008:12016   */\n              0x00\n                /* \"#utility.yul\":12058:12063   */\n              dup3\n                /* \"#utility.yul\":12052:12056   */\n              dup3\n                /* \"#utility.yul\":12048:12064   */\n              shr\n                /* \"#utility.yul\":12027:12064   */\n              swap1\n              pop\n                /* \"#utility.yul\":11954:12071   */\n              swap3\n              swap2\n              pop\n              pop\n              jump\t// out\n                /* \"#utility.yul\":12077:12246   */\n            tag_138:\n                /* \"#utility.yul\":12121:12127   */\n              0x00\n                /* \"#utility.yul\":12154:12205   */\n              tag_289\n                /* \"#utility.yul\":12202:12203   */\n              0x00\n                /* \"#utility.yul\":12198:12204   */\n              not\n                /* \"#utility.yul\":12190:12195   */\n              dup5\n                /* \"#utility.yul\":12187:12188   */\n              0x08\n                /* \"#utility.yul\":12183:12196   */\n              mul\n                /* \"#utility.yul\":12154:12205   */\n              tag_137\n              jump\t// in\n            tag_289:\n                /* \"#utility.yul\":12150:12206   */\n              not\n                /* \"#utility.yul\":12235:12239   */\n              dup1\n                /* \"#utility.yul\":12229:12233   */\n              dup4\n                /* \"#utility.yul\":12225:12240   */\n              and\n                /* \"#utility.yul\":12215:12240   */\n              swap2\n              pop\n                /* \"#utility.yul\":12128:12246   */\n              pop\n                /* \"#utility.yul\":12077:12246   */\n              swap3\n              swap2\n              pop\n              pop\n              jump\t// out\n                /* \"#utility.yul\":12251:12546   */\n            tag_139:\n                /* \"#utility.yul\":12327:12331   */\n              0x00\n                /* \"#utility.yul\":12473:12502   */\n              tag_291\n                /* \"#utility.yul\":12498:12501   */\n              dup4\n                /* \"#utility.yul\":12492:12496   */\n              dup4\n                /* \"#utility.yul\":12473:12502   */\n              tag_138\n              jump\t// in\n            tag_291:\n                /* \"#utility.yul\":12465:12502   */\n              swap2\n              pop\n                /* \"#utility.yul\":12535:12538   */\n              dup3\n                /* \"#utility.yul\":12532:12533   */\n              0x02\n                /* \"#utility.yul\":12528:12539   */\n              mul\n                /* \"#utility.yul\":12522:12526   */\n              dup3\n                /* \"#utility.yul\":12519:12540   */\n              or\n                /* \"#utility.yul\":12511:12540   */\n              swap1\n              pop\n                /* \"#utility.yul\":12251:12546   */\n              swap3\n              swap2\n              pop\n              pop\n              jump\t// out\n                /* \"#utility.yul\":12551:13946   */\n            tag_81:\n                /* \"#utility.yul\":12668:12705   */\n              tag_293\n                /* \"#utility.yul\":12701:12704   */\n              dup3\n                /* \"#utility.yul\":12668:12705   */\n              tag_103\n              jump\t// in\n            tag_293:\n                /* \"#utility.yul\":12770:12788   */\n              0xffffffffffffffff\n                /* \"#utility.yul\":12762:12768   */\n              dup2\n                /* \"#utility.yul\":12759:12789   */\n              gt\n                /* \"#utility.yul\":12756:12812   */\n              iszero\n              tag_294\n              jumpi\n                /* \"#utility.yul\":12792:12810   */\n              tag_295\n              tag_113\n              jump\t// in\n            tag_295:\n                /* \"#utility.yul\":12756:12812   */\n            tag_294:\n                /* \"#utility.yul\":12836:12874   */\n              tag_296\n                /* \"#utility.yul\":12868:12872   */\n              dup3\n                /* \"#utility.yul\":12862:12873   */\n              sload\n                /* \"#utility.yul\":12836:12874   */\n              tag_70\n              jump\t// in\n            tag_296:\n                /* \"#utility.yul\":12921:12988   */\n              tag_297\n                /* \"#utility.yul\":12981:12987   */\n              dup3\n                /* \"#utility.yul\":12973:12979   */\n              dup3\n                /* \"#utility.yul\":12967:12971   */\n              dup6\n                /* \"#utility.yul\":12921:12988   */\n              tag_136\n              jump\t// in\n            tag_297:\n                /* \"#utility.yul\":13015:13016   */\n              0x00\n                /* \"#utility.yul\":13039:13043   */\n              0x20\n                /* \"#utility.yul\":13026:13043   */\n              swap1\n              pop\n                /* \"#utility.yul\":13071:13073   */\n              0x1f\n                /* \"#utility.yul\":13063:13069   */\n              dup4\n                /* \"#utility.yul\":13060:13074   */\n              gt\n                /* \"#utility.yul\":13088:13089   */\n              0x01\n                /* \"#utility.yul\":13083:13701   */\n              dup2\n              eq\n              tag_299\n              jumpi\n                /* \"#utility.yul\":13745:13746   */\n              0x00\n                /* \"#utility.yul\":13762:13768   */\n              dup5\n                /* \"#utility.yul\":13759:13836   */\n              iszero\n              tag_300\n              jumpi\n                /* \"#utility.yul\":13811:13820   */\n              dup3\n                /* \"#utility.yul\":13806:13809   */\n              dup8\n                /* \"#utility.yul\":13802:13821   */\n              add\n                /* \"#utility.yul\":13796:13822   */\n              mload\n                /* \"#utility.yul\":13787:13822   */\n              swap1\n              pop\n                /* \"#utility.yul\":13759:13836   */\n            tag_300:\n                /* \"#utility.yul\":13862:13929   */\n              tag_301\n                /* \"#utility.yul\":13922:13928   */\n              dup6\n                /* \"#utility.yul\":13915:13920   */\n              dup3\n                /* \"#utility.yul\":13862:13929   */\n              tag_139\n              jump\t// in\n            tag_301:\n                /* \"#utility.yul\":13856:13860   */\n              dup7\n                /* \"#utility.yul\":13849:13930   */\n              sstore\n                /* \"#utility.yul\":13718:13940   */\n              pop\n                /* \"#utility.yul\":13053:13940   */\n              jump(tag_298)\n                /* \"#utility.yul\":13083:13701   */\n            tag_299:\n                /* \"#utility.yul\":13135:13139   */\n              0x1f\n                /* \"#utility.yul\":13131:13140   */\n              not\n                /* \"#utility.yul\":13123:13129   */\n              dup5\n                /* \"#utility.yul\":13119:13141   */\n              and\n                /* \"#utility.yul\":13169:13206   */\n              tag_302\n                /* \"#utility.yul\":13201:13205   */\n              dup7\n                /* \"#utility.yul\":13169:13206   */\n              tag_125\n              jump\t// in\n            tag_302:\n                /* \"#utility.yul\":13228:13229   */\n              0x00\n                /* \"#utility.yul\":13242:13450   */\n            tag_303:\n                /* \"#utility.yul\":13256:13263   */\n              dup3\n                /* \"#utility.yul\":13253:13254   */\n              dup2\n                /* \"#utility.yul\":13250:13264   */\n              lt\n                /* \"#utility.yul\":13242:13450   */\n              iszero\n              tag_305\n              jumpi\n                /* \"#utility.yul\":13335:13344   */\n              dup5\n                /* \"#utility.yul\":13330:13333   */\n              dup10\n                /* \"#utility.yul\":13326:13345   */\n              add\n                /* \"#utility.yul\":13320:13346   */\n              mload\n                /* \"#utility.yul\":13312:13318   */\n              dup3\n                /* \"#utility.yul\":13305:13347   */\n              sstore\n                /* \"#utility.yul\":13386:13387   */\n              0x01\n                /* \"#utility.yul\":13378:13384   */\n              dup3\n                /* \"#utility.yul\":13374:13388   */\n              add\n                /* \"#utility.yul\":13364:13388   */\n              swap2\n              pop\n                /* \"#utility.yul\":13433:13435   */\n              0x20\n                /* \"#utility.yul\":13422:13431   */\n              dup6\n                /* \"#utility.yul\":13418:13436   */\n              add\n                /* \"#utility.yul\":13405:13436   */\n              swap5\n              pop\n                /* \"#utility.yul\":13279:13283   */\n              0x20\n                /* \"#utility.yul\":13276:13277   */\n              dup2\n                /* \"#utility.yul\":13272:13284   */\n              add\n                /* \"#utility.yul\":13267:13284   */\n              swap1\n              pop\n                /* \"#utility.yul\":13242:13450   */\n              jump(tag_303)\n            tag_305:\n                /* \"#utility.yul\":13478:13484   */\n              dup7\n                /* \"#utility.yul\":13469:13476   */\n              dup4\n                /* \"#utility.yul\":13466:13485   */\n              lt\n                /* \"#utility.yul\":13463:13642   */\n              iszero\n              tag_306\n              jumpi\n                /* \"#utility.yul\":13536:13545   */\n              dup5\n                /* \"#utility.yul\":13531:13534   */\n              dup10\n                /* \"#utility.yul\":13527:13546   */\n              add\n                /* \"#utility.yul\":13521:13547   */\n              mload\n                /* \"#utility.yul\":13579:13627   */\n              tag_307\n                /* \"#utility.yul\":13621:13625   */\n              0x1f\n                /* \"#utility.yul\":13613:13619   */\n              dup10\n                /* \"#utility.yul\":13609:13626   */\n              and\n                /* \"#utility.yul\":13598:13607   */\n              dup3\n                /* \"#utility.yul\":13579:13627   */\n              tag_138\n              jump\t// in\n            tag_307:\n                /* \"#utility.yul\":13571:13577   */\n              dup4\n                /* \"#utility.yul\":13564:13628   */\n              sstore\n                /* \"#utility.yul\":13486:13642   */\n              pop\n                /* \"#utility.yul\":13463:13642   */\n            tag_306:\n                /* \"#utility.yul\":13688:13689   */\n              0x01\n                /* \"#utility.yul\":13684:13685   */\n              0x02\n                /* \"#utility.yul\":13676:13682   */\n              dup9\n                /* \"#utility.yul\":13672:13686   */\n              mul\n                /* \"#utility.yul\":13668:13690   */\n              add\n                /* \"#utility.yul\":13662:13666   */\n              dup9\n                /* \"#utility.yul\":13655:13691   */\n              sstore\n                /* \"#utility.yul\":13090:13701   */\n              pop\n              pop\n              pop\n                /* \"#utility.yul\":13053:13940   */\n            tag_298:\n              pop\n                /* \"#utility.yul\":12643:13946   */\n              pop\n              pop\n              pop\n                /* \"#utility.yul\":12551:13946   */\n              pop\n              pop\n              jump\t// out\n\n            auxdata: 0xa2646970667358221220ef44e4cc8d5b620318ec7b9b43bb1c3064dfd9323b7ea22b4e34315a1acf153064736f6c63430008110033\n        }\n    }\n\n    auxdata: 0xa2646970667358221220091c9386cb9a5c5965a1a340cf7dbf9e12f41cbf02db75025f547105e134772664736f6c63430008110033\n}\n","bytecode":{"linkReferences":{},"object":"608060405234801561001057600080fd5b5061150d806100206000396000f3fe608060405234801561001057600080fd5b50600436106100365760003560e01c806337ec992a1461003b5780635eac000714610057575b600080fd5b610055600480360381019061005091906101ec565b610075565b005b61005f610116565b60405161006c9190610309565b60405180910390f35b60008133604051610085906101a4565b610090929190610349565b604051809103906000f0801580156100ac573d6000803e3d6000fd5b5090506000819080600181540180825580915050600190039060005260206000200160009091909190916101000a81548173ffffffffffffffffffffffffffffffffffffffff021916908373ffffffffffffffffffffffffffffffffffffffff1602179055505050565b6060600080548060200260200160405190810160405280929190818152602001828054801561019a57602002820191906000526020600020905b8160009054906101000a900473ffffffffffffffffffffffffffffffffffffffff1673ffffffffffffffffffffffffffffffffffffffff1681526020019060010190808311610150575b5050505050905090565b6111658061037383390190565b600080fd5b6000819050919050565b6101c9816101b6565b81146101d457600080fd5b50565b6000813590506101e6816101c0565b92915050565b600060208284031215610202576102016101b1565b5b6000610210848285016101d7565b91505092915050565b600081519050919050565b600082825260208201905092915050565b6000819050602082019050919050565b600073ffffffffffffffffffffffffffffffffffffffff82169050919050565b600061027082610245565b9050919050565b61028081610265565b82525050565b60006102928383610277565b60208301905092915050565b6000602082019050919050565b60006102b682610219565b6102c08185610224565b93506102cb83610235565b8060005b838110156102fc5781516102e38882610286565b97506102ee8361029e565b9250506001810190506102cf565b5085935050505092915050565b6000602082019050818103600083015261032381846102ab565b905092915050565b610334816101b6565b82525050565b61034381610265565b82525050565b600060408201905061035e600083018561032b565b61036b602083018461033a565b939250505056fe60806040523480156200001157600080fd5b50604051620011653803806200116583398181016040528101906200003791906200012b565b806000806101000a81548173ffffffffffffffffffffffffffffffffffffffff021916908373ffffffffffffffffffffffffffffffffffffffff16021790555081600181905550505062000172565b600080fd5b6000819050919050565b620000a0816200008b565b8114620000ac57600080fd5b50565b600081519050620000c08162000095565b92915050565b600073ffffffffffffffffffffffffffffffffffffffff82169050919050565b6000620000f382620000c6565b9050919050565b6200010581620000e6565b81146200011157600080fd5b50565b6000815190506200012581620000fa565b92915050565b6000806040838503121562000145576200014462000086565b5b60006200015585828601620000af565b9250506020620001688582860162000114565b9150509250929050565b610fe380620001826000396000f3fe6080604052600436106100915760003560e01c80638a9cfd55116100595780638a9cfd55146101935780638b7afe2e146101bc578063a7f33715146101e7578063d7bb99ba14610212578063d7d1bbdb1461021c57610091565b806303441006146100965780630a144391146100bf578063481c6a75146100fc57806381d12c581461012757806382fde09314610168575b600080fd5b3480156100a257600080fd5b506100bd60048036038101906100b891906107db565b610245565b005b3480156100cb57600080fd5b506100e660048036038101906100e19190610866565b61037c565b6040516100f391906108ae565b60405180910390f35b34801561010857600080fd5b5061011161039c565b60405161011e91906108d8565b60405180910390f35b34801561013357600080fd5b5061014e600480360381019061014991906107db565b6103c0565b60405161015f9594939291906109b3565b60405180910390f35b34801561017457600080fd5b5061017d6104ab565b60405161018a9190610a0d565b60405180910390f35b34801561019f57600080fd5b506101ba60048036038101906101b59190610b89565b6104b1565b005b3480156101c857600080fd5b506101d16105bf565b6040516101de9190610a0d565b60405180910390f35b3480156101f357600080fd5b506101fc6105c5565b6040516102099190610a0d565b60405180910390f35b61021a6105cb565b005b34801561022857600080fd5b50610243600480360381019061023e91906107db565b610653565b005b600260003373ffffffffffffffffffffffffffffffffffffffff1673ffffffffffffffffffffffffffffffffffffffff16815260200190815260200160002060009054906101000a900460ff1661029b57600080fd5b600060036000838152602001908152602001600020905060026005546102c19190610c56565b8160030154116102d057600080fd5b8060020160149054906101000a900460ff16156102ec57600080fd5b8060020160009054906101000a900473ffffffffffffffffffffffffffffffffffffffff1673ffffffffffffffffffffffffffffffffffffffff166108fc82600101549081150290604051600060405180830381858888f1935050505015801561035a573d6000803e3d6000fd5b5060018160020160146101000a81548160ff0219169083151502179055505050565b60026020528060005260406000206000915054906101000a900460ff1681565b60008054906101000a900473ffffffffffffffffffffffffffffffffffffffff1681565b60036020528060005260406000206000915090508060000180546103e390610cb6565b80601f016020809104026020016040519081016040528092919081815260200182805461040f90610cb6565b801561045c5780601f106104315761010080835404028352916020019161045c565b820191906000526020600020905b81548152906001019060200180831161043f57829003601f168201915b5050505050908060010154908060020160009054906101000a900473ffffffffffffffffffffffffffffffffffffffff16908060020160149054906101000a900460ff16908060030154905085565b60055481565b600260003373ffffffffffffffffffffffffffffffffffffffff1673ffffffffffffffffffffffffffffffffffffffff16815260200190815260200160002060009054906101000a900460ff1661050757600080fd5b6000600360006006600081548092919061052090610ce7565b9190505581526020019081526020016000209050838160000190816105459190610edb565b50828160010181905550818160020160006101000a81548173ffffffffffffffffffffffffffffffffffffffff021916908373ffffffffffffffffffffffffffffffffffffffff16021790555060008160020160146101000a81548160ff0219169083151502179055506000816003018190555050505050565b60045481565b60015481565b6001543410156105da57600080fd5b6001600260003373ffffffffffffffffffffffffffffffffffffffff1673ffffffffffffffffffffffffffffffffffffffff16815260200190815260200160002060006101000a81548160ff021916908315150217905550476004819055506005600081548092919061064c90610ce7565b9190505550565b6000600360008381526020019081526020016000209050600260003373ffffffffffffffffffffffffffffffffffffffff1673ffffffffffffffffffffffffffffffffffffffff16815260200190815260200160002060009054906101000a900460ff166106c057600080fd5b8060040160003373ffffffffffffffffffffffffffffffffffffffff1673ffffffffffffffffffffffffffffffffffffffff16815260200190815260200160002060009054906101000a900460ff161561071957600080fd5b60018160040160003373ffffffffffffffffffffffffffffffffffffffff1673ffffffffffffffffffffffffffffffffffffffff16815260200190815260200160002060006101000a81548160ff02191690831515021790555080600301600081548092919061078890610ce7565b91905055505050565b6000604051905090565b600080fd5b600080fd5b6000819050919050565b6107b8816107a5565b81146107c357600080fd5b50565b6000813590506107d5816107af565b92915050565b6000602082840312156107f1576107f061079b565b5b60006107ff848285016107c6565b91505092915050565b600073ffffffffffffffffffffffffffffffffffffffff82169050919050565b600061083382610808565b9050919050565b61084381610828565b811461084e57600080fd5b50565b6000813590506108608161083a565b92915050565b60006020828403121561087c5761087b61079b565b5b600061088a84828501610851565b91505092915050565b60008115159050919050565b6108a881610893565b82525050565b60006020820190506108c3600083018461089f565b92915050565b6108d281610828565b82525050565b60006020820190506108ed60008301846108c9565b92915050565b600081519050919050565b600082825260208201905092915050565b60005b8381101561092d578082015181840152602081019050610912565b60008484015250505050565b6000601f19601f8301169050919050565b6000610955826108f3565b61095f81856108fe565b935061096f81856020860161090f565b61097881610939565b840191505092915050565b61098c816107a5565b82525050565b600061099d82610808565b9050919050565b6109ad81610992565b82525050565b600060a08201905081810360008301526109cd818861094a565b90506109dc6020830187610983565b6109e960408301866109a4565b6109f6606083018561089f565b610a036080830184610983565b9695505050505050565b6000602082019050610a226000830184610983565b92915050565b600080fd5b600080fd5b7f4e487b7100000000000000000000000000000000000000000000000000000000600052604160045260246000fd5b610a6a82610939565b810181811067ffffffffffffffff82111715610a8957610a88610a32565b5b80604052505050565b6000610a9c610791565b9050610aa88282610a61565b919050565b600067ffffffffffffffff821115610ac857610ac7610a32565b5b610ad182610939565b9050602081019050919050565b82818337600083830152505050565b6000610b00610afb84610aad565b610a92565b905082815260208101848484011115610b1c57610b1b610a2d565b5b610b27848285610ade565b509392505050565b600082601f830112610b4457610b43610a28565b5b8135610b54848260208601610aed565b91505092915050565b610b6681610992565b8114610b7157600080fd5b50565b600081359050610b8381610b5d565b92915050565b600080600060608486031215610ba257610ba161079b565b5b600084013567ffffffffffffffff811115610bc057610bbf6107a0565b5b610bcc86828701610b2f565b9350506020610bdd868287016107c6565b9250506040610bee86828701610b74565b9150509250925092565b7f4e487b7100000000000000000000000000000000000000000000000000000000600052601260045260246000fd5b7f4e487b7100000000000000000000000000000000000000000000000000000000600052601160045260246000fd5b6000610c61826107a5565b9150610c6c836107a5565b925082610c7c57610c7b610bf8565b5b828204905092915050565b7f4e487b7100000000000000000000000000000000000000000000000000000000600052602260045260246000fd5b60006002820490506001821680610cce57607f821691505b602082108103610ce157610ce0610c87565b5b50919050565b6000610cf2826107a5565b91507fffffffffffffffffffffffffffffffffffffffffffffffffffffffffffffffff8203610d2457610d23610c27565b5b600182019050919050565b60008190508160005260206000209050919050565b60006020601f8301049050919050565b600082821b905092915050565b600060088302610d917fffffffffffffffffffffffffffffffffffffffffffffffffffffffffffffffff82610d54565b610d9b8683610d54565b95508019841693508086168417925050509392505050565b6000819050919050565b6000610dd8610dd3610dce846107a5565b610db3565b6107a5565b9050919050565b6000819050919050565b610df283610dbd565b610e06610dfe82610ddf565b848454610d61565b825550505050565b600090565b610e1b610e0e565b610e26818484610de9565b505050565b5b81811015610e4a57610e3f600082610e13565b600181019050610e2c565b5050565b601f821115610e8f57610e6081610d2f565b610e6984610d44565b81016020851015610e78578190505b610e8c610e8485610d44565b830182610e2b565b50505b505050565b600082821c905092915050565b6000610eb260001984600802610e94565b1980831691505092915050565b6000610ecb8383610ea1565b9150826002028217905092915050565b610ee4826108f3565b67ffffffffffffffff811115610efd57610efc610a32565b5b610f078254610cb6565b610f12828285610e4e565b600060209050601f831160018114610f455760008415610f33578287015190505b610f3d8582610ebf565b865550610fa5565b601f198416610f5386610d2f565b60005b82811015610f7b57848901518255600182019150602085019450602081019050610f56565b86831015610f985784890151610f94601f891682610ea1565b8355505b6001600288020188555050505b50505050505056fea2646970667358221220ef44e4cc8d5b620318ec7b9b43bb1c3064dfd9323b7ea22b4e34315a1acf153064736f6c63430008110033a2646970667358221220091c9386cb9a5c5965a1a340cf7dbf9e12f41cbf02db75025f547105e134772664736f6c63430008110033","opcodes":"PUSH1 0x80 PUSH1 0x40 MSTORE CALLVALUE DUP1 ISZERO PUSH2 0x10 JUMPI PUSH1 0x0 DUP1 REVERT JUMPDEST POP PUSH2 0x150D DUP1 PUSH2 0x20 PUSH1 0x0 CODECOPY PUSH1 0x0 RETURN INVALID PUSH1 0x80 PUSH1 0x40 MSTORE CALLVALUE DUP1 ISZERO PUSH2 0x10 JUMPI PUSH1 0x0 DUP1 REVERT JUMPDEST POP PUSH1 0x4 CALLDATASIZE LT PUSH2 0x36 JUMPI PUSH1 0x0 CALLDATALOAD PUSH1 0xE0 SHR DUP1 PUSH4 0x37EC992A EQ PUSH2 0x3B JUMPI DUP1 PUSH4 0x5EAC0007 EQ PUSH2 0x57 JUMPI JUMPDEST PUSH1 0x0 DUP1 REVERT JUMPDEST PUSH2 0x55 PUSH1 0x4 DUP1 CALLDATASIZE SUB DUP2 ADD SWAP1 PUSH2 0x50 SWAP2 SWAP1 PUSH2 0x1EC JUMP JUMPDEST PUSH2 0x75 JUMP JUMPDEST STOP JUMPDEST PUSH2 0x5F PUSH2 0x116 JUMP JUMPDEST PUSH1 0x40 MLOAD PUSH2 0x6C SWAP2 SWAP1 PUSH2 0x309 JUMP JUMPDEST PUSH1 0x40 MLOAD DUP1 SWAP2 SUB SWAP1 RETURN JUMPDEST PUSH1 0x0 DUP2 CALLER PUSH1 0x40 MLOAD PUSH2 0x85 SWAP1 PUSH2 0x1A4 JUMP JUMPDEST PUSH2 0x90 SWAP3 SWAP2 SWAP1 PUSH2 0x349 JUMP JUMPDEST PUSH1 0x40 MLOAD DUP1 SWAP2 SUB SWAP1 PUSH1 0x0 CREATE DUP1 ISZERO DUP1 ISZERO PUSH2 0xAC JUMPI RETURNDATASIZE PUSH1 0x0 DUP1 RETURNDATACOPY RETURNDATASIZE PUSH1 0x0 REVERT JUMPDEST POP SWAP1 POP PUSH1 0x0 DUP2 SWAP1 DUP1 PUSH1 0x1 DUP2 SLOAD ADD DUP1 DUP3 SSTORE DUP1 SWAP2 POP POP PUSH1 0x1 SWAP1 SUB SWAP1 PUSH1 0x0 MSTORE PUSH1 0x20 PUSH1 0x0 KECCAK256 ADD PUSH1 0x0 SWAP1 SWAP2 SWAP1 SWAP2 SWAP1 SWAP2 PUSH2 0x100 EXP DUP2 SLOAD DUP2 PUSH20 0xFFFFFFFFFFFFFFFFFFFFFFFFFFFFFFFFFFFFFFFF MUL NOT AND SWAP1 DUP4 PUSH20 0xFFFFFFFFFFFFFFFFFFFFFFFFFFFFFFFFFFFFFFFF AND MUL OR SWAP1 SSTORE POP POP POP JUMP JUMPDEST PUSH1 0x60 PUSH1 0x0 DUP1 SLOAD DUP1 PUSH1 0x20 MUL PUSH1 0x20 ADD PUSH1 0x40 MLOAD SWAP1 DUP2 ADD PUSH1 0x40 MSTORE DUP1 SWAP3 SWAP2 SWAP1 DUP2 DUP2 MSTORE PUSH1 0x20 ADD DUP3 DUP1 SLOAD DUP1 ISZERO PUSH2 0x19A JUMPI PUSH1 0x20 MUL DUP3 ADD SWAP2 SWAP1 PUSH1 0x0 MSTORE PUSH1 0x20 PUSH1 0x0 KECCAK256 SWAP1 JUMPDEST DUP2 PUSH1 0x0 SWAP1 SLOAD SWAP1 PUSH2 0x100 EXP SWAP1 DIV PUSH20 0xFFFFFFFFFFFFFFFFFFFFFFFFFFFFFFFFFFFFFFFF AND PUSH20 0xFFFFFFFFFFFFFFFFFFFFFFFFFFFFFFFFFFFFFFFF AND DUP2 MSTORE PUSH1 0x20 ADD SWAP1 PUSH1 0x1 ADD SWAP1 DUP1 DUP4 GT PUSH2 0x150 JUMPI JUMPDEST POP POP POP POP POP SWAP1 POP SWAP1 JUMP JUMPDEST PUSH2 0x1165 DUP1 PUSH2 0x373 DUP4 CODECOPY ADD SWAP1 JUMP JUMPDEST PUSH1 0x0 DUP1 REVERT JUMPDEST PUSH1 0x0 DUP2 SWAP1 POP SWAP2 SWAP1 POP JUMP JUMPDEST PUSH2 0x1C9 DUP2 PUSH2 0x1B6 JUMP JUMPDEST DUP2 EQ PUSH2 0x1D4 JUMPI PUSH1 0x0 DUP1 REVERT JUMPDEST POP JUMP JUMPDEST PUSH1 0x0 DUP2 CALLDATALOAD SWAP1 POP PUSH2 0x1E6 DUP2 PUSH2 0x1C0 JUMP JUMPDEST SWAP3 SWAP2 POP POP JUMP JUMPDEST PUSH1 0x0 PUSH1 0x20 DUP3 DUP5 SUB SLT ISZERO PUSH2 0x202 JUMPI PUSH2 0x201 PUSH2 0x1B1 JUMP JUMPDEST JUMPDEST PUSH1 0x0 PUSH2 0x210 DUP5 DUP3 DUP6 ADD PUSH2 0x1D7 JUMP JUMPDEST SWAP2 POP POP SWAP3 SWAP2 POP POP JUMP JUMPDEST PUSH1 0x0 DUP2 MLOAD SWAP1 POP SWAP2 SWAP1 POP JUMP JUMPDEST PUSH1 0x0 DUP3 DUP3 MSTORE PUSH1 0x20 DUP3 ADD SWAP1 POP SWAP3 SWAP2 POP POP JUMP JUMPDEST PUSH1 0x0 DUP2 SWAP1 POP PUSH1 0x20 DUP3 ADD SWAP1 POP SWAP2 SWAP1 POP JUMP JUMPDEST PUSH1 0x0 PUSH20 0xFFFFFFFFFFFFFFFFFFFFFFFFFFFFFFFFFFFFFFFF DUP3 AND SWAP1 POP SWAP2 SWAP1 POP JUMP JUMPDEST PUSH1 0x0 PUSH2 0x270 DUP3 PUSH2 0x245 JUMP JUMPDEST SWAP1 POP SWAP2 SWAP1 POP JUMP JUMPDEST PUSH2 0x280 DUP2 PUSH2 0x265 JUMP JUMPDEST DUP3 MSTORE POP POP JUMP JUMPDEST PUSH1 0x0 PUSH2 0x292 DUP4 DUP4 PUSH2 0x277 JUMP JUMPDEST PUSH1 0x20 DUP4 ADD SWAP1 POP SWAP3 SWAP2 POP POP JUMP JUMPDEST PUSH1 0x0 PUSH1 0x20 DUP3 ADD SWAP1 POP SWAP2 SWAP1 POP JUMP JUMPDEST PUSH1 0x0 PUSH2 0x2B6 DUP3 PUSH2 0x219 JUMP JUMPDEST PUSH2 0x2C0 DUP2 DUP6 PUSH2 0x224 JUMP JUMPDEST SWAP4 POP PUSH2 0x2CB DUP4 PUSH2 0x235 JUMP JUMPDEST DUP1 PUSH1 0x0 JUMPDEST DUP4 DUP2 LT ISZERO PUSH2 0x2FC JUMPI DUP2 MLOAD PUSH2 0x2E3 DUP9 DUP3 PUSH2 0x286 JUMP JUMPDEST SWAP8 POP PUSH2 0x2EE DUP4 PUSH2 0x29E JUMP JUMPDEST SWAP3 POP POP PUSH1 0x1 DUP2 ADD SWAP1 POP PUSH2 0x2CF JUMP JUMPDEST POP DUP6 SWAP4 POP POP POP POP SWAP3 SWAP2 POP POP JUMP JUMPDEST PUSH1 0x0 PUSH1 0x20 DUP3 ADD SWAP1 POP DUP2 DUP2 SUB PUSH1 0x0 DUP4 ADD MSTORE PUSH2 0x323 DUP2 DUP5 PUSH2 0x2AB JUMP JUMPDEST SWAP1 POP SWAP3 SWAP2 POP POP JUMP JUMPDEST PUSH2 0x334 DUP2 PUSH2 0x1B6 JUMP JUMPDEST DUP3 MSTORE POP POP JUMP JUMPDEST PUSH2 0x343 DUP2 PUSH2 0x265 JUMP JUMPDEST DUP3 MSTORE POP POP JUMP JUMPDEST PUSH1 0x0 PUSH1 0x40 DUP3 ADD SWAP1 POP PUSH2 0x35E PUSH1 0x0 DUP4 ADD DUP6 PUSH2 0x32B JUMP JUMPDEST PUSH2 0x36B PUSH1 0x20 DUP4 ADD DUP5 PUSH2 0x33A JUMP JUMPDEST SWAP4 SWAP3 POP POP POP JUMP INVALID PUSH1 0x80 PUSH1 0x40 MSTORE CALLVALUE DUP1 ISZERO PUSH3 0x11 JUMPI PUSH1 0x0 DUP1 REVERT JUMPDEST POP PUSH1 0x40 MLOAD PUSH3 0x1165 CODESIZE SUB DUP1 PUSH3 0x1165 DUP4 CODECOPY DUP2 DUP2 ADD PUSH1 0x40 MSTORE DUP2 ADD SWAP1 PUSH3 0x37 SWAP2 SWAP1 PUSH3 0x12B JUMP JUMPDEST DUP1 PUSH1 0x0 DUP1 PUSH2 0x100 EXP DUP2 SLOAD DUP2 PUSH20 0xFFFFFFFFFFFFFFFFFFFFFFFFFFFFFFFFFFFFFFFF MUL NOT AND SWAP1 DUP4 PUSH20 0xFFFFFFFFFFFFFFFFFFFFFFFFFFFFFFFFFFFFFFFF AND MUL OR SWAP1 SSTORE POP DUP2 PUSH1 0x1 DUP2 SWAP1 SSTORE POP POP POP PUSH3 0x172 JUMP JUMPDEST PUSH1 0x0 DUP1 REVERT JUMPDEST PUSH1 0x0 DUP2 SWAP1 POP SWAP2 SWAP1 POP JUMP JUMPDEST PUSH3 0xA0 DUP2 PUSH3 0x8B JUMP JUMPDEST DUP2 EQ PUSH3 0xAC JUMPI PUSH1 0x0 DUP1 REVERT JUMPDEST POP JUMP JUMPDEST PUSH1 0x0 DUP2 MLOAD SWAP1 POP PUSH3 0xC0 DUP2 PUSH3 0x95 JUMP JUMPDEST SWAP3 SWAP2 POP POP JUMP JUMPDEST PUSH1 0x0 PUSH20 0xFFFFFFFFFFFFFFFFFFFFFFFFFFFFFFFFFFFFFFFF DUP3 AND SWAP1 POP SWAP2 SWAP1 POP JUMP JUMPDEST PUSH1 0x0 PUSH3 0xF3 DUP3 PUSH3 0xC6 JUMP JUMPDEST SWAP1 POP SWAP2 SWAP1 POP JUMP JUMPDEST PUSH3 0x105 DUP2 PUSH3 0xE6 JUMP JUMPDEST DUP2 EQ PUSH3 0x111 JUMPI PUSH1 0x0 DUP1 REVERT JUMPDEST POP JUMP JUMPDEST PUSH1 0x0 DUP2 MLOAD SWAP1 POP PUSH3 0x125 DUP2 PUSH3 0xFA JUMP JUMPDEST SWAP3 SWAP2 POP POP JUMP JUMPDEST PUSH1 0x0 DUP1 PUSH1 0x40 DUP4 DUP6 SUB SLT ISZERO PUSH3 0x145 JUMPI PUSH3 0x144 PUSH3 0x86 JUMP JUMPDEST JUMPDEST PUSH1 0x0 PUSH3 0x155 DUP6 DUP3 DUP7 ADD PUSH3 0xAF JUMP JUMPDEST SWAP3 POP POP PUSH1 0x20 PUSH3 0x168 DUP6 DUP3 DUP7 ADD PUSH3 0x114 JUMP JUMPDEST SWAP2 POP POP SWAP3 POP SWAP3 SWAP1 POP JUMP JUMPDEST PUSH2 0xFE3 DUP1 PUSH3 0x182 PUSH1 0x0 CODECOPY PUSH1 0x0 RETURN INVALID PUSH1 0x80 PUSH1 0x40 MSTORE PUSH1 0x4 CALLDATASIZE LT PUSH2 0x91 JUMPI PUSH1 0x0 CALLDATALOAD PUSH1 0xE0 SHR DUP1 PUSH4 0x8A9CFD55 GT PUSH2 0x59 JUMPI DUP1 PUSH4 0x8A9CFD55 EQ PUSH2 0x193 JUMPI DUP1 PUSH4 0x8B7AFE2E EQ PUSH2 0x1BC JUMPI DUP1 PUSH4 0xA7F33715 EQ PUSH2 0x1E7 JUMPI DUP1 PUSH4 0xD7BB99BA EQ PUSH2 0x212 JUMPI DUP1 PUSH4 0xD7D1BBDB EQ PUSH2 0x21C JUMPI PUSH2 0x91 JUMP JUMPDEST DUP1 PUSH4 0x3441006 EQ PUSH2 0x96 JUMPI DUP1 PUSH4 0xA144391 EQ PUSH2 0xBF JUMPI DUP1 PUSH4 0x481C6A75 EQ PUSH2 0xFC JUMPI DUP1 PUSH4 0x81D12C58 EQ PUSH2 0x127 JUMPI DUP1 PUSH4 0x82FDE093 EQ PUSH2 0x168 JUMPI JUMPDEST PUSH1 0x0 DUP1 REVERT JUMPDEST CALLVALUE DUP1 ISZERO PUSH2 0xA2 JUMPI PUSH1 0x0 DUP1 REVERT JUMPDEST POP PUSH2 0xBD PUSH1 0x4 DUP1 CALLDATASIZE SUB DUP2 ADD SWAP1 PUSH2 0xB8 SWAP2 SWAP1 PUSH2 0x7DB JUMP JUMPDEST PUSH2 0x245 JUMP JUMPDEST STOP JUMPDEST CALLVALUE DUP1 ISZERO PUSH2 0xCB JUMPI PUSH1 0x0 DUP1 REVERT JUMPDEST POP PUSH2 0xE6 PUSH1 0x4 DUP1 CALLDATASIZE SUB DUP2 ADD SWAP1 PUSH2 0xE1 SWAP2 SWAP1 PUSH2 0x866 JUMP JUMPDEST PUSH2 0x37C JUMP JUMPDEST PUSH1 0x40 MLOAD PUSH2 0xF3 SWAP2 SWAP1 PUSH2 0x8AE JUMP JUMPDEST PUSH1 0x40 MLOAD DUP1 SWAP2 SUB SWAP1 RETURN JUMPDEST CALLVALUE DUP1 ISZERO PUSH2 0x108 JUMPI PUSH1 0x0 DUP1 REVERT JUMPDEST POP PUSH2 0x111 PUSH2 0x39C JUMP JUMPDEST PUSH1 0x40 MLOAD PUSH2 0x11E SWAP2 SWAP1 PUSH2 0x8D8 JUMP JUMPDEST PUSH1 0x40 MLOAD DUP1 SWAP2 SUB SWAP1 RETURN JUMPDEST CALLVALUE DUP1 ISZERO PUSH2 0x133 JUMPI PUSH1 0x0 DUP1 REVERT JUMPDEST POP PUSH2 0x14E PUSH1 0x4 DUP1 CALLDATASIZE SUB DUP2 ADD SWAP1 PUSH2 0x149 SWAP2 SWAP1 PUSH2 0x7DB JUMP JUMPDEST PUSH2 0x3C0 JUMP JUMPDEST PUSH1 0x40 MLOAD PUSH2 0x15F SWAP6 SWAP5 SWAP4 SWAP3 SWAP2 SWAP1 PUSH2 0x9B3 JUMP JUMPDEST PUSH1 0x40 MLOAD DUP1 SWAP2 SUB SWAP1 RETURN JUMPDEST CALLVALUE DUP1 ISZERO PUSH2 0x174 JUMPI PUSH1 0x0 DUP1 REVERT JUMPDEST POP PUSH2 0x17D PUSH2 0x4AB JUMP JUMPDEST PUSH1 0x40 MLOAD PUSH2 0x18A SWAP2 SWAP1 PUSH2 0xA0D JUMP JUMPDEST PUSH1 0x40 MLOAD DUP1 SWAP2 SUB SWAP1 RETURN JUMPDEST CALLVALUE DUP1 ISZERO PUSH2 0x19F JUMPI PUSH1 0x0 DUP1 REVERT JUMPDEST POP PUSH2 0x1BA PUSH1 0x4 DUP1 CALLDATASIZE SUB DUP2 ADD SWAP1 PUSH2 0x1B5 SWAP2 SWAP1 PUSH2 0xB89 JUMP JUMPDEST PUSH2 0x4B1 JUMP JUMPDEST STOP JUMPDEST CALLVALUE DUP1 ISZERO PUSH2 0x1C8 JUMPI PUSH1 0x0 DUP1 REVERT JUMPDEST POP PUSH2 0x1D1 PUSH2 0x5BF JUMP JUMPDEST PUSH1 0x40 MLOAD PUSH2 0x1DE SWAP2 SWAP1 PUSH2 0xA0D JUMP JUMPDEST PUSH1 0x40 MLOAD DUP1 SWAP2 SUB SWAP1 RETURN JUMPDEST CALLVALUE DUP1 ISZERO PUSH2 0x1F3 JUMPI PUSH1 0x0 DUP1 REVERT JUMPDEST POP PUSH2 0x1FC PUSH2 0x5C5 JUMP JUMPDEST PUSH1 0x40 MLOAD PUSH2 0x209 SWAP2 SWAP1 PUSH2 0xA0D JUMP JUMPDEST PUSH1 0x40 MLOAD DUP1 SWAP2 SUB SWAP1 RETURN JUMPDEST PUSH2 0x21A PUSH2 0x5CB JUMP JUMPDEST STOP JUMPDEST CALLVALUE DUP1 ISZERO PUSH2 0x228 JUMPI PUSH1 0x0 DUP1 REVERT JUMPDEST POP PUSH2 0x243 PUSH1 0x4 DUP1 CALLDATASIZE SUB DUP2 ADD SWAP1 PUSH2 0x23E SWAP2 SWAP1 PUSH2 0x7DB JUMP JUMPDEST PUSH2 0x653 JUMP JUMPDEST STOP JUMPDEST PUSH1 0x2 PUSH1 0x0 CALLER PUSH20 0xFFFFFFFFFFFFFFFFFFFFFFFFFFFFFFFFFFFFFFFF AND PUSH20 0xFFFFFFFFFFFFFFFFFFFFFFFFFFFFFFFFFFFFFFFF AND DUP2 MSTORE PUSH1 0x20 ADD SWAP1 DUP2 MSTORE PUSH1 0x20 ADD PUSH1 0x0 KECCAK256 PUSH1 0x0 SWAP1 SLOAD SWAP1 PUSH2 0x100 EXP SWAP1 DIV PUSH1 0xFF AND PUSH2 0x29B JUMPI PUSH1 0x0 DUP1 REVERT JUMPDEST PUSH1 0x0 PUSH1 0x3 PUSH1 0x0 DUP4 DUP2 MSTORE PUSH1 0x20 ADD SWAP1 DUP2 MSTORE PUSH1 0x20 ADD PUSH1 0x0 KECCAK256 SWAP1 POP PUSH1 0x2 PUSH1 0x5 SLOAD PUSH2 0x2C1 SWAP2 SWAP1 PUSH2 0xC56 JUMP JUMPDEST DUP2 PUSH1 0x3 ADD SLOAD GT PUSH2 0x2D0 JUMPI PUSH1 0x0 DUP1 REVERT JUMPDEST DUP1 PUSH1 0x2 ADD PUSH1 0x14 SWAP1 SLOAD SWAP1 PUSH2 0x100 EXP SWAP1 DIV PUSH1 0xFF AND ISZERO PUSH2 0x2EC JUMPI PUSH1 0x0 DUP1 REVERT JUMPDEST DUP1 PUSH1 0x2 ADD PUSH1 0x0 SWAP1 SLOAD SWAP1 PUSH2 0x100 EXP SWAP1 DIV PUSH20 0xFFFFFFFFFFFFFFFFFFFFFFFFFFFFFFFFFFFFFFFF AND PUSH20 0xFFFFFFFFFFFFFFFFFFFFFFFFFFFFFFFFFFFFFFFF AND PUSH2 0x8FC DUP3 PUSH1 0x1 ADD SLOAD SWAP1 DUP2 ISZERO MUL SWAP1 PUSH1 0x40 MLOAD PUSH1 0x0 PUSH1 0x40 MLOAD DUP1 DUP4 SUB DUP2 DUP6 DUP9 DUP9 CALL SWAP4 POP POP POP POP ISZERO DUP1 ISZERO PUSH2 0x35A JUMPI RETURNDATASIZE PUSH1 0x0 DUP1 RETURNDATACOPY RETURNDATASIZE PUSH1 0x0 REVERT JUMPDEST POP PUSH1 0x1 DUP2 PUSH1 0x2 ADD PUSH1 0x14 PUSH2 0x100 EXP DUP2 SLOAD DUP2 PUSH1 0xFF MUL NOT AND SWAP1 DUP4 ISZERO ISZERO MUL OR SWAP1 SSTORE POP POP POP JUMP JUMPDEST PUSH1 0x2 PUSH1 0x20 MSTORE DUP1 PUSH1 0x0 MSTORE PUSH1 0x40 PUSH1 0x0 KECCAK256 PUSH1 0x0 SWAP2 POP SLOAD SWAP1 PUSH2 0x100 EXP SWAP1 DIV PUSH1 0xFF AND DUP2 JUMP JUMPDEST PUSH1 0x0 DUP1 SLOAD SWAP1 PUSH2 0x100 EXP SWAP1 DIV PUSH20 0xFFFFFFFFFFFFFFFFFFFFFFFFFFFFFFFFFFFFFFFF AND DUP2 JUMP JUMPDEST PUSH1 0x3 PUSH1 0x20 MSTORE DUP1 PUSH1 0x0 MSTORE PUSH1 0x40 PUSH1 0x0 KECCAK256 PUSH1 0x0 SWAP2 POP SWAP1 POP DUP1 PUSH1 0x0 ADD DUP1 SLOAD PUSH2 0x3E3 SWAP1 PUSH2 0xCB6 JUMP JUMPDEST DUP1 PUSH1 0x1F ADD PUSH1 0x20 DUP1 SWAP2 DIV MUL PUSH1 0x20 ADD PUSH1 0x40 MLOAD SWAP1 DUP2 ADD PUSH1 0x40 MSTORE DUP1 SWAP3 SWAP2 SWAP1 DUP2 DUP2 MSTORE PUSH1 0x20 ADD DUP3 DUP1 SLOAD PUSH2 0x40F SWAP1 PUSH2 0xCB6 JUMP JUMPDEST DUP1 ISZERO PUSH2 0x45C JUMPI DUP1 PUSH1 0x1F LT PUSH2 0x431 JUMPI PUSH2 0x100 DUP1 DUP4 SLOAD DIV MUL DUP4 MSTORE SWAP2 PUSH1 0x20 ADD SWAP2 PUSH2 0x45C JUMP JUMPDEST DUP3 ADD SWAP2 SWAP1 PUSH1 0x0 MSTORE PUSH1 0x20 PUSH1 0x0 KECCAK256 SWAP1 JUMPDEST DUP2 SLOAD DUP2 MSTORE SWAP1 PUSH1 0x1 ADD SWAP1 PUSH1 0x20 ADD DUP1 DUP4 GT PUSH2 0x43F JUMPI DUP3 SWAP1 SUB PUSH1 0x1F AND DUP3 ADD SWAP2 JUMPDEST POP POP POP POP POP SWAP1 DUP1 PUSH1 0x1 ADD SLOAD SWAP1 DUP1 PUSH1 0x2 ADD PUSH1 0x0 SWAP1 SLOAD SWAP1 PUSH2 0x100 EXP SWAP1 DIV PUSH20 0xFFFFFFFFFFFFFFFFFFFFFFFFFFFFFFFFFFFFFFFF AND SWAP1 DUP1 PUSH1 0x2 ADD PUSH1 0x14 SWAP1 SLOAD SWAP1 PUSH2 0x100 EXP SWAP1 DIV PUSH1 0xFF AND SWAP1 DUP1 PUSH1 0x3 ADD SLOAD SWAP1 POP DUP6 JUMP JUMPDEST PUSH1 0x5 SLOAD DUP2 JUMP JUMPDEST PUSH1 0x2 PUSH1 0x0 CALLER PUSH20 0xFFFFFFFFFFFFFFFFFFFFFFFFFFFFFFFFFFFFFFFF AND PUSH20 0xFFFFFFFFFFFFFFFFFFFFFFFFFFFFFFFFFFFFFFFF AND DUP2 MSTORE PUSH1 0x20 ADD SWAP1 DUP2 MSTORE PUSH1 0x20 ADD PUSH1 0x0 KECCAK256 PUSH1 0x0 SWAP1 SLOAD SWAP1 PUSH2 0x100 EXP SWAP1 DIV PUSH1 0xFF AND PUSH2 0x507 JUMPI PUSH1 0x0 DUP1 REVERT JUMPDEST PUSH1 0x0 PUSH1 0x3 PUSH1 0x0 PUSH1 0x6 PUSH1 0x0 DUP2 SLOAD DUP1 SWAP3 SWAP2 SWAP1 PUSH2 0x520 SWAP1 PUSH2 0xCE7 JUMP JUMPDEST SWAP2 SWAP1 POP SSTORE DUP2 MSTORE PUSH1 0x20 ADD SWAP1 DUP2 MSTORE PUSH1 0x20 ADD PUSH1 0x0 KECCAK256 SWAP1 POP DUP4 DUP2 PUSH1 0x0 ADD SWAP1 DUP2 PUSH2 0x545 SWAP2 SWAP1 PUSH2 0xEDB JUMP JUMPDEST POP DUP3 DUP2 PUSH1 0x1 ADD DUP2 SWAP1 SSTORE POP DUP2 DUP2 PUSH1 0x2 ADD PUSH1 0x0 PUSH2 0x100 EXP DUP2 SLOAD DUP2 PUSH20 0xFFFFFFFFFFFFFFFFFFFFFFFFFFFFFFFFFFFFFFFF MUL NOT AND SWAP1 DUP4 PUSH20 0xFFFFFFFFFFFFFFFFFFFFFFFFFFFFFFFFFFFFFFFF AND MUL OR SWAP1 SSTORE POP PUSH1 0x0 DUP2 PUSH1 0x2 ADD PUSH1 0x14 PUSH2 0x100 EXP DUP2 SLOAD DUP2 PUSH1 0xFF MUL NOT AND SWAP1 DUP4 ISZERO ISZERO MUL OR SWAP1 SSTORE POP PUSH1 0x0 DUP2 PUSH1 0x3 ADD DUP2 SWAP1 SSTORE POP POP POP POP POP JUMP JUMPDEST PUSH1 0x4 SLOAD DUP2 JUMP JUMPDEST PUSH1 0x1 SLOAD DUP2 JUMP JUMPDEST PUSH1 0x1 SLOAD CALLVALUE LT ISZERO PUSH2 0x5DA JUMPI PUSH1 0x0 DUP1 REVERT JUMPDEST PUSH1 0x1 PUSH1 0x2 PUSH1 0x0 CALLER PUSH20 0xFFFFFFFFFFFFFFFFFFFFFFFFFFFFFFFFFFFFFFFF AND PUSH20 0xFFFFFFFFFFFFFFFFFFFFFFFFFFFFFFFFFFFFFFFF AND DUP2 MSTORE PUSH1 0x20 ADD SWAP1 DUP2 MSTORE PUSH1 0x20 ADD PUSH1 0x0 KECCAK256 PUSH1 0x0 PUSH2 0x100 EXP DUP2 SLOAD DUP2 PUSH1 0xFF MUL NOT AND SWAP1 DUP4 ISZERO ISZERO MUL OR SWAP1 SSTORE POP SELFBALANCE PUSH1 0x4 DUP2 SWAP1 SSTORE POP PUSH1 0x5 PUSH1 0x0 DUP2 SLOAD DUP1 SWAP3 SWAP2 SWAP1 PUSH2 0x64C SWAP1 PUSH2 0xCE7 JUMP JUMPDEST SWAP2 SWAP1 POP SSTORE POP JUMP JUMPDEST PUSH1 0x0 PUSH1 0x3 PUSH1 0x0 DUP4 DUP2 MSTORE PUSH1 0x20 ADD SWAP1 DUP2 MSTORE PUSH1 0x20 ADD PUSH1 0x0 KECCAK256 SWAP1 POP PUSH1 0x2 PUSH1 0x0 CALLER PUSH20 0xFFFFFFFFFFFFFFFFFFFFFFFFFFFFFFFFFFFFFFFF AND PUSH20 0xFFFFFFFFFFFFFFFFFFFFFFFFFFFFFFFFFFFFFFFF AND DUP2 MSTORE PUSH1 0x20 ADD SWAP1 DUP2 MSTORE PUSH1 0x20 ADD PUSH1 0x0 KECCAK256 PUSH1 0x0 SWAP1 SLOAD SWAP1 PUSH2 0x100 EXP SWAP1 DIV PUSH1 0xFF AND PUSH2 0x6C0 JUMPI PUSH1 0x0 DUP1 REVERT JUMPDEST DUP1 PUSH1 0x4 ADD PUSH1 0x0 CALLER PUSH20 0xFFFFFFFFFFFFFFFFFFFFFFFFFFFFFFFFFFFFFFFF AND PUSH20 0xFFFFFFFFFFFFFFFFFFFFFFFFFFFFFFFFFFFFFFFF AND DUP2 MSTORE PUSH1 0x20 ADD SWAP1 DUP2 MSTORE PUSH1 0x20 ADD PUSH1 0x0 KECCAK256 PUSH1 0x0 SWAP1 SLOAD SWAP1 PUSH2 0x100 EXP SWAP1 DIV PUSH1 0xFF AND ISZERO PUSH2 0x719 JUMPI PUSH1 0x0 DUP1 REVERT JUMPDEST PUSH1 0x1 DUP2 PUSH1 0x4 ADD PUSH1 0x0 CALLER PUSH20 0xFFFFFFFFFFFFFFFFFFFFFFFFFFFFFFFFFFFFFFFF AND PUSH20 0xFFFFFFFFFFFFFFFFFFFFFFFFFFFFFFFFFFFFFFFF AND DUP2 MSTORE PUSH1 0x20 ADD SWAP1 DUP2 MSTORE PUSH1 0x20 ADD PUSH1 0x0 KECCAK256 PUSH1 0x0 PUSH2 0x100 EXP DUP2 SLOAD DUP2 PUSH1 0xFF MUL NOT AND SWAP1 DUP4 ISZERO ISZERO MUL OR SWAP1 SSTORE POP DUP1 PUSH1 0x3 ADD PUSH1 0x0 DUP2 SLOAD DUP1 SWAP3 SWAP2 SWAP1 PUSH2 0x788 SWAP1 PUSH2 0xCE7 JUMP JUMPDEST SWAP2 SWAP1 POP SSTORE POP POP POP JUMP JUMPDEST PUSH1 0x0 PUSH1 0x40 MLOAD SWAP1 POP SWAP1 JUMP JUMPDEST PUSH1 0x0 DUP1 REVERT JUMPDEST PUSH1 0x0 DUP1 REVERT JUMPDEST PUSH1 0x0 DUP2 SWAP1 POP SWAP2 SWAP1 POP JUMP JUMPDEST PUSH2 0x7B8 DUP2 PUSH2 0x7A5 JUMP JUMPDEST DUP2 EQ PUSH2 0x7C3 JUMPI PUSH1 0x0 DUP1 REVERT JUMPDEST POP JUMP JUMPDEST PUSH1 0x0 DUP2 CALLDATALOAD SWAP1 POP PUSH2 0x7D5 DUP2 PUSH2 0x7AF JUMP JUMPDEST SWAP3 SWAP2 POP POP JUMP JUMPDEST PUSH1 0x0 PUSH1 0x20 DUP3 DUP5 SUB SLT ISZERO PUSH2 0x7F1 JUMPI PUSH2 0x7F0 PUSH2 0x79B JUMP JUMPDEST JUMPDEST PUSH1 0x0 PUSH2 0x7FF DUP5 DUP3 DUP6 ADD PUSH2 0x7C6 JUMP JUMPDEST SWAP2 POP POP SWAP3 SWAP2 POP POP JUMP JUMPDEST PUSH1 0x0 PUSH20 0xFFFFFFFFFFFFFFFFFFFFFFFFFFFFFFFFFFFFFFFF DUP3 AND SWAP1 POP SWAP2 SWAP1 POP JUMP JUMPDEST PUSH1 0x0 PUSH2 0x833 DUP3 PUSH2 0x808 JUMP JUMPDEST SWAP1 POP SWAP2 SWAP1 POP JUMP JUMPDEST PUSH2 0x843 DUP2 PUSH2 0x828 JUMP JUMPDEST DUP2 EQ PUSH2 0x84E JUMPI PUSH1 0x0 DUP1 REVERT JUMPDEST POP JUMP JUMPDEST PUSH1 0x0 DUP2 CALLDATALOAD SWAP1 POP PUSH2 0x860 DUP2 PUSH2 0x83A JUMP JUMPDEST SWAP3 SWAP2 POP POP JUMP JUMPDEST PUSH1 0x0 PUSH1 0x20 DUP3 DUP5 SUB SLT ISZERO PUSH2 0x87C JUMPI PUSH2 0x87B PUSH2 0x79B JUMP JUMPDEST JUMPDEST PUSH1 0x0 PUSH2 0x88A DUP5 DUP3 DUP6 ADD PUSH2 0x851 JUMP JUMPDEST SWAP2 POP POP SWAP3 SWAP2 POP POP JUMP JUMPDEST PUSH1 0x0 DUP2 ISZERO ISZERO SWAP1 POP SWAP2 SWAP1 POP JUMP JUMPDEST PUSH2 0x8A8 DUP2 PUSH2 0x893 JUMP JUMPDEST DUP3 MSTORE POP POP JUMP JUMPDEST PUSH1 0x0 PUSH1 0x20 DUP3 ADD SWAP1 POP PUSH2 0x8C3 PUSH1 0x0 DUP4 ADD DUP5 PUSH2 0x89F JUMP JUMPDEST SWAP3 SWAP2 POP POP JUMP JUMPDEST PUSH2 0x8D2 DUP2 PUSH2 0x828 JUMP JUMPDEST DUP3 MSTORE POP POP JUMP JUMPDEST PUSH1 0x0 PUSH1 0x20 DUP3 ADD SWAP1 POP PUSH2 0x8ED PUSH1 0x0 DUP4 ADD DUP5 PUSH2 0x8C9 JUMP JUMPDEST SWAP3 SWAP2 POP POP JUMP JUMPDEST PUSH1 0x0 DUP2 MLOAD SWAP1 POP SWAP2 SWAP1 POP JUMP JUMPDEST PUSH1 0x0 DUP3 DUP3 MSTORE PUSH1 0x20 DUP3 ADD SWAP1 POP SWAP3 SWAP2 POP POP JUMP JUMPDEST PUSH1 0x0 JUMPDEST DUP4 DUP2 LT ISZERO PUSH2 0x92D JUMPI DUP1 DUP3 ADD MLOAD DUP2 DUP5 ADD MSTORE PUSH1 0x20 DUP2 ADD SWAP1 POP PUSH2 0x912 JUMP JUMPDEST PUSH1 0x0 DUP5 DUP5 ADD MSTORE POP POP POP POP JUMP JUMPDEST PUSH1 0x0 PUSH1 0x1F NOT PUSH1 0x1F DUP4 ADD AND SWAP1 POP SWAP2 SWAP1 POP JUMP JUMPDEST PUSH1 0x0 PUSH2 0x955 DUP3 PUSH2 0x8F3 JUMP JUMPDEST PUSH2 0x95F DUP2 DUP6 PUSH2 0x8FE JUMP JUMPDEST SWAP4 POP PUSH2 0x96F DUP2 DUP6 PUSH1 0x20 DUP7 ADD PUSH2 0x90F JUMP JUMPDEST PUSH2 0x978 DUP2 PUSH2 0x939 JUMP JUMPDEST DUP5 ADD SWAP2 POP POP SWAP3 SWAP2 POP POP JUMP JUMPDEST PUSH2 0x98C DUP2 PUSH2 0x7A5 JUMP JUMPDEST DUP3 MSTORE POP POP JUMP JUMPDEST PUSH1 0x0 PUSH2 0x99D DUP3 PUSH2 0x808 JUMP JUMPDEST SWAP1 POP SWAP2 SWAP1 POP JUMP JUMPDEST PUSH2 0x9AD DUP2 PUSH2 0x992 JUMP JUMPDEST DUP3 MSTORE POP POP JUMP JUMPDEST PUSH1 0x0 PUSH1 0xA0 DUP3 ADD SWAP1 POP DUP2 DUP2 SUB PUSH1 0x0 DUP4 ADD MSTORE PUSH2 0x9CD DUP2 DUP9 PUSH2 0x94A JUMP JUMPDEST SWAP1 POP PUSH2 0x9DC PUSH1 0x20 DUP4 ADD DUP8 PUSH2 0x983 JUMP JUMPDEST PUSH2 0x9E9 PUSH1 0x40 DUP4 ADD DUP7 PUSH2 0x9A4 JUMP JUMPDEST PUSH2 0x9F6 PUSH1 0x60 DUP4 ADD DUP6 PUSH2 0x89F JUMP JUMPDEST PUSH2 0xA03 PUSH1 0x80 DUP4 ADD DUP5 PUSH2 0x983 JUMP JUMPDEST SWAP7 SWAP6 POP POP POP POP POP POP JUMP JUMPDEST PUSH1 0x0 PUSH1 0x20 DUP3 ADD SWAP1 POP PUSH2 0xA22 PUSH1 0x0 DUP4 ADD DUP5 PUSH2 0x983 JUMP JUMPDEST SWAP3 SWAP2 POP POP JUMP JUMPDEST PUSH1 0x0 DUP1 REVERT JUMPDEST PUSH1 0x0 DUP1 REVERT JUMPDEST PUSH32 0x4E487B7100000000000000000000000000000000000000000000000000000000 PUSH1 0x0 MSTORE PUSH1 0x41 PUSH1 0x4 MSTORE PUSH1 0x24 PUSH1 0x0 REVERT JUMPDEST PUSH2 0xA6A DUP3 PUSH2 0x939 JUMP JUMPDEST DUP2 ADD DUP2 DUP2 LT PUSH8 0xFFFFFFFFFFFFFFFF DUP3 GT OR ISZERO PUSH2 0xA89 JUMPI PUSH2 0xA88 PUSH2 0xA32 JUMP JUMPDEST JUMPDEST DUP1 PUSH1 0x40 MSTORE POP POP POP JUMP JUMPDEST PUSH1 0x0 PUSH2 0xA9C PUSH2 0x791 JUMP JUMPDEST SWAP1 POP PUSH2 0xAA8 DUP3 DUP3 PUSH2 0xA61 JUMP JUMPDEST SWAP2 SWAP1 POP JUMP JUMPDEST PUSH1 0x0 PUSH8 0xFFFFFFFFFFFFFFFF DUP3 GT ISZERO PUSH2 0xAC8 JUMPI PUSH2 0xAC7 PUSH2 0xA32 JUMP JUMPDEST JUMPDEST PUSH2 0xAD1 DUP3 PUSH2 0x939 JUMP JUMPDEST SWAP1 POP PUSH1 0x20 DUP2 ADD SWAP1 POP SWAP2 SWAP1 POP JUMP JUMPDEST DUP3 DUP2 DUP4 CALLDATACOPY PUSH1 0x0 DUP4 DUP4 ADD MSTORE POP POP POP JUMP JUMPDEST PUSH1 0x0 PUSH2 0xB00 PUSH2 0xAFB DUP5 PUSH2 0xAAD JUMP JUMPDEST PUSH2 0xA92 JUMP JUMPDEST SWAP1 POP DUP3 DUP2 MSTORE PUSH1 0x20 DUP2 ADD DUP5 DUP5 DUP5 ADD GT ISZERO PUSH2 0xB1C JUMPI PUSH2 0xB1B PUSH2 0xA2D JUMP JUMPDEST JUMPDEST PUSH2 0xB27 DUP5 DUP3 DUP6 PUSH2 0xADE JUMP JUMPDEST POP SWAP4 SWAP3 POP POP POP JUMP JUMPDEST PUSH1 0x0 DUP3 PUSH1 0x1F DUP4 ADD SLT PUSH2 0xB44 JUMPI PUSH2 0xB43 PUSH2 0xA28 JUMP JUMPDEST JUMPDEST DUP2 CALLDATALOAD PUSH2 0xB54 DUP5 DUP3 PUSH1 0x20 DUP7 ADD PUSH2 0xAED JUMP JUMPDEST SWAP2 POP POP SWAP3 SWAP2 POP POP JUMP JUMPDEST PUSH2 0xB66 DUP2 PUSH2 0x992 JUMP JUMPDEST DUP2 EQ PUSH2 0xB71 JUMPI PUSH1 0x0 DUP1 REVERT JUMPDEST POP JUMP JUMPDEST PUSH1 0x0 DUP2 CALLDATALOAD SWAP1 POP PUSH2 0xB83 DUP2 PUSH2 0xB5D JUMP JUMPDEST SWAP3 SWAP2 POP POP JUMP JUMPDEST PUSH1 0x0 DUP1 PUSH1 0x0 PUSH1 0x60 DUP5 DUP7 SUB SLT ISZERO PUSH2 0xBA2 JUMPI PUSH2 0xBA1 PUSH2 0x79B JUMP JUMPDEST JUMPDEST PUSH1 0x0 DUP5 ADD CALLDATALOAD PUSH8 0xFFFFFFFFFFFFFFFF DUP2 GT ISZERO PUSH2 0xBC0 JUMPI PUSH2 0xBBF PUSH2 0x7A0 JUMP JUMPDEST JUMPDEST PUSH2 0xBCC DUP7 DUP3 DUP8 ADD PUSH2 0xB2F JUMP JUMPDEST SWAP4 POP POP PUSH1 0x20 PUSH2 0xBDD DUP7 DUP3 DUP8 ADD PUSH2 0x7C6 JUMP JUMPDEST SWAP3 POP POP PUSH1 0x40 PUSH2 0xBEE DUP7 DUP3 DUP8 ADD PUSH2 0xB74 JUMP JUMPDEST SWAP2 POP POP SWAP3 POP SWAP3 POP SWAP3 JUMP JUMPDEST PUSH32 0x4E487B7100000000000000000000000000000000000000000000000000000000 PUSH1 0x0 MSTORE PUSH1 0x12 PUSH1 0x4 MSTORE PUSH1 0x24 PUSH1 0x0 REVERT JUMPDEST PUSH32 0x4E487B7100000000000000000000000000000000000000000000000000000000 PUSH1 0x0 MSTORE PUSH1 0x11 PUSH1 0x4 MSTORE PUSH1 0x24 PUSH1 0x0 REVERT JUMPDEST PUSH1 0x0 PUSH2 0xC61 DUP3 PUSH2 0x7A5 JUMP JUMPDEST SWAP2 POP PUSH2 0xC6C DUP4 PUSH2 0x7A5 JUMP JUMPDEST SWAP3 POP DUP3 PUSH2 0xC7C JUMPI PUSH2 0xC7B PUSH2 0xBF8 JUMP JUMPDEST JUMPDEST DUP3 DUP3 DIV SWAP1 POP SWAP3 SWAP2 POP POP JUMP JUMPDEST PUSH32 0x4E487B7100000000000000000000000000000000000000000000000000000000 PUSH1 0x0 MSTORE PUSH1 0x22 PUSH1 0x4 MSTORE PUSH1 0x24 PUSH1 0x0 REVERT JUMPDEST PUSH1 0x0 PUSH1 0x2 DUP3 DIV SWAP1 POP PUSH1 0x1 DUP3 AND DUP1 PUSH2 0xCCE JUMPI PUSH1 0x7F DUP3 AND SWAP2 POP JUMPDEST PUSH1 0x20 DUP3 LT DUP2 SUB PUSH2 0xCE1 JUMPI PUSH2 0xCE0 PUSH2 0xC87 JUMP JUMPDEST JUMPDEST POP SWAP2 SWAP1 POP JUMP JUMPDEST PUSH1 0x0 PUSH2 0xCF2 DUP3 PUSH2 0x7A5 JUMP JUMPDEST SWAP2 POP PUSH32 0xFFFFFFFFFFFFFFFFFFFFFFFFFFFFFFFFFFFFFFFFFFFFFFFFFFFFFFFFFFFFFFFF DUP3 SUB PUSH2 0xD24 JUMPI PUSH2 0xD23 PUSH2 0xC27 JUMP JUMPDEST JUMPDEST PUSH1 0x1 DUP3 ADD SWAP1 POP SWAP2 SWAP1 POP JUMP JUMPDEST PUSH1 0x0 DUP2 SWAP1 POP DUP2 PUSH1 0x0 MSTORE PUSH1 0x20 PUSH1 0x0 KECCAK256 SWAP1 POP SWAP2 SWAP1 POP JUMP JUMPDEST PUSH1 0x0 PUSH1 0x20 PUSH1 0x1F DUP4 ADD DIV SWAP1 POP SWAP2 SWAP1 POP JUMP JUMPDEST PUSH1 0x0 DUP3 DUP3 SHL SWAP1 POP SWAP3 SWAP2 POP POP JUMP JUMPDEST PUSH1 0x0 PUSH1 0x8 DUP4 MUL PUSH2 0xD91 PUSH32 0xFFFFFFFFFFFFFFFFFFFFFFFFFFFFFFFFFFFFFFFFFFFFFFFFFFFFFFFFFFFFFFFF DUP3 PUSH2 0xD54 JUMP JUMPDEST PUSH2 0xD9B DUP7 DUP4 PUSH2 0xD54 JUMP JUMPDEST SWAP6 POP DUP1 NOT DUP5 AND SWAP4 POP DUP1 DUP7 AND DUP5 OR SWAP3 POP POP POP SWAP4 SWAP3 POP POP POP JUMP JUMPDEST PUSH1 0x0 DUP2 SWAP1 POP SWAP2 SWAP1 POP JUMP JUMPDEST PUSH1 0x0 PUSH2 0xDD8 PUSH2 0xDD3 PUSH2 0xDCE DUP5 PUSH2 0x7A5 JUMP JUMPDEST PUSH2 0xDB3 JUMP JUMPDEST PUSH2 0x7A5 JUMP JUMPDEST SWAP1 POP SWAP2 SWAP1 POP JUMP JUMPDEST PUSH1 0x0 DUP2 SWAP1 POP SWAP2 SWAP1 POP JUMP JUMPDEST PUSH2 0xDF2 DUP4 PUSH2 0xDBD JUMP JUMPDEST PUSH2 0xE06 PUSH2 0xDFE DUP3 PUSH2 0xDDF JUMP JUMPDEST DUP5 DUP5 SLOAD PUSH2 0xD61 JUMP JUMPDEST DUP3 SSTORE POP POP POP POP JUMP JUMPDEST PUSH1 0x0 SWAP1 JUMP JUMPDEST PUSH2 0xE1B PUSH2 0xE0E JUMP JUMPDEST PUSH2 0xE26 DUP2 DUP5 DUP5 PUSH2 0xDE9 JUMP JUMPDEST POP POP POP JUMP JUMPDEST JUMPDEST DUP2 DUP2 LT ISZERO PUSH2 0xE4A JUMPI PUSH2 0xE3F PUSH1 0x0 DUP3 PUSH2 0xE13 JUMP JUMPDEST PUSH1 0x1 DUP2 ADD SWAP1 POP PUSH2 0xE2C JUMP JUMPDEST POP POP JUMP JUMPDEST PUSH1 0x1F DUP3 GT ISZERO PUSH2 0xE8F JUMPI PUSH2 0xE60 DUP2 PUSH2 0xD2F JUMP JUMPDEST PUSH2 0xE69 DUP5 PUSH2 0xD44 JUMP JUMPDEST DUP2 ADD PUSH1 0x20 DUP6 LT ISZERO PUSH2 0xE78 JUMPI DUP2 SWAP1 POP JUMPDEST PUSH2 0xE8C PUSH2 0xE84 DUP6 PUSH2 0xD44 JUMP JUMPDEST DUP4 ADD DUP3 PUSH2 0xE2B JUMP JUMPDEST POP POP JUMPDEST POP POP POP JUMP JUMPDEST PUSH1 0x0 DUP3 DUP3 SHR SWAP1 POP SWAP3 SWAP2 POP POP JUMP JUMPDEST PUSH1 0x0 PUSH2 0xEB2 PUSH1 0x0 NOT DUP5 PUSH1 0x8 MUL PUSH2 0xE94 JUMP JUMPDEST NOT DUP1 DUP4 AND SWAP2 POP POP SWAP3 SWAP2 POP POP JUMP JUMPDEST PUSH1 0x0 PUSH2 0xECB DUP4 DUP4 PUSH2 0xEA1 JUMP JUMPDEST SWAP2 POP DUP3 PUSH1 0x2 MUL DUP3 OR SWAP1 POP SWAP3 SWAP2 POP POP JUMP JUMPDEST PUSH2 0xEE4 DUP3 PUSH2 0x8F3 JUMP JUMPDEST PUSH8 0xFFFFFFFFFFFFFFFF DUP2 GT ISZERO PUSH2 0xEFD JUMPI PUSH2 0xEFC PUSH2 0xA32 JUMP JUMPDEST JUMPDEST PUSH2 0xF07 DUP3 SLOAD PUSH2 0xCB6 JUMP JUMPDEST PUSH2 0xF12 DUP3 DUP3 DUP6 PUSH2 0xE4E JUMP JUMPDEST PUSH1 0x0 PUSH1 0x20 SWAP1 POP PUSH1 0x1F DUP4 GT PUSH1 0x1 DUP2 EQ PUSH2 0xF45 JUMPI PUSH1 0x0 DUP5 ISZERO PUSH2 0xF33 JUMPI DUP3 DUP8 ADD MLOAD SWAP1 POP JUMPDEST PUSH2 0xF3D DUP6 DUP3 PUSH2 0xEBF JUMP JUMPDEST DUP7 SSTORE POP PUSH2 0xFA5 JUMP JUMPDEST PUSH1 0x1F NOT DUP5 AND PUSH2 0xF53 DUP7 PUSH2 0xD2F JUMP JUMPDEST PUSH1 0x0 JUMPDEST DUP3 DUP2 LT ISZERO PUSH2 0xF7B JUMPI DUP5 DUP10 ADD MLOAD DUP3 SSTORE PUSH1 0x1 DUP3 ADD SWAP2 POP PUSH1 0x20 DUP6 ADD SWAP5 POP PUSH1 0x20 DUP2 ADD SWAP1 POP PUSH2 0xF56 JUMP JUMPDEST DUP7 DUP4 LT ISZERO PUSH2 0xF98 JUMPI DUP5 DUP10 ADD MLOAD PUSH2 0xF94 PUSH1 0x1F DUP10 AND DUP3 PUSH2 0xEA1 JUMP JUMPDEST DUP4 SSTORE POP JUMPDEST PUSH1 0x1 PUSH1 0x2 DUP9 MUL ADD DUP9 SSTORE POP POP POP JUMPDEST POP POP POP POP POP POP JUMP INVALID LOG2 PUSH5 0x6970667358 0x22 SLT KECCAK256 0xEF DIFFICULTY 0xE4 0xCC DUP14 JUMPDEST PUSH3 0x318EC PUSH28 0x9B43BB1C3064DFD9323B7EA22B4E34315A1ACF153064736F6C634300 ADDMOD GT STOP CALLER LOG2 PUSH5 0x6970667358 0x22 SLT KECCAK256 MULMOD SHR SWAP4 DUP7 0xCB SWAP11 0x5C MSIZE PUSH6 0xA1A340CF7DBF SWAP15 SLT DELEGATECALL SHR 0xBF MUL 0xDB PUSH22 0x25F547105E134772664736F6C634300081100330000 "},"gasEstimates":{"creation":{"codeDepositCost":"1077800","executionCost":"1120","totalCost":"1078920"},"external":{"deployCampaign(uint256)":"infinite","getDeployedCampaign()":"infinite"}},"methodIdentifiers":{"deployCampaign(uint256)":"37ec992a","getDeployedCampaign()":"5eac0007"}},"storageLayout":{"storage":[{"astId":4,"contract":"Campaign.sol:CampaignDeployer","label":"deployedCampaigns","offset":0,"slot":"0","type":"t_array(t_address)dyn_storage"}],"types":{"t_address":{"encoding":"inplace","label":"address","numberOfBytes":"20"},"t_array(t_address)dyn_storage":{"base":"t_address","encoding":"dynamic_array","label":"address[]","numberOfBytes":"32"}}},"userdoc":{"kind":"user","methods":{},"version":1}}